{"abi":[{"type":"constructor","inputs":[{"name":"_eggs","type":"address","internalType":"address"},{"name":"_subscriptionId","type":"uint256","internalType":"uint256"},{"name":"_governor","type":"address","internalType":"address"},{"name":"_vrfCoordinatorV2_5","type":"address","internalType":"address"}],"stateMutability":"nonpayable"},{"type":"function","name":"EGGS","inputs":[],"outputs":[{"name":"","type":"address","internalType":"contract IEgg"}],"stateMutability":"view"},{"type":"function","name":"I_ANTSALEDISCOUNT","inputs":[],"outputs":[{"name":"","type":"uint256","internalType":"uint256"}],"stateMutability":"view"},{"type":"function","name":"acceptOwnership","inputs":[],"outputs":[],"stateMutability":"nonpayable"},{"type":"function","name":"antPrice","inputs":[],"outputs":[{"name":"","type":"uint256","internalType":"uint256"}],"stateMutability":"view"},{"type":"function","name":"ants","inputs":[{"name":"","type":"uint256","internalType":"uint256"}],"outputs":[{"name":"lastLayTime","type":"uint256","internalType":"uint256"},{"name":"isAlive","type":"bool","internalType":"bool"}],"stateMutability":"view"},{"type":"function","name":"approve","inputs":[{"name":"to","type":"address","internalType":"address"},{"name":"tokenId","type":"uint256","internalType":"uint256"}],"outputs":[],"stateMutability":"nonpayable"},{"type":"function","name":"balanceOf","inputs":[{"name":"owner","type":"address","internalType":"address"}],"outputs":[{"name":"","type":"uint256","internalType":"uint256"}],"stateMutability":"view"},{"type":"function","name":"buyEggs","inputs":[{"name":"_numberOfEggs","type":"uint256","internalType":"uint256"}],"outputs":[],"stateMutability":"payable"},{"type":"function","name":"createAnt","inputs":[],"outputs":[{"name":"_antId","type":"uint256","internalType":"uint256"}],"stateMutability":"nonpayable"},{"type":"function","name":"deathChance","inputs":[],"outputs":[{"name":"","type":"uint256","internalType":"uint256"}],"stateMutability":"view"},{"type":"function","name":"eggPrice","inputs":[],"outputs":[{"name":"","type":"uint256","internalType":"uint256"}],"stateMutability":"view"},{"type":"function","name":"getAntPrice","inputs":[],"outputs":[{"name":"","type":"uint256","internalType":"uint256"}],"stateMutability":"view"},{"type":"function","name":"getAntsCreated","inputs":[],"outputs":[{"name":"","type":"uint256","internalType":"uint256"}],"stateMutability":"view"},{"type":"function","name":"getApproved","inputs":[{"name":"tokenId","type":"uint256","internalType":"uint256"}],"outputs":[{"name":"","type":"address","internalType":"address"}],"stateMutability":"view"},{"type":"function","name":"getContractBalance","inputs":[],"outputs":[{"name":"","type":"uint256","internalType":"uint256"}],"stateMutability":"view"},{"type":"function","name":"governor","inputs":[],"outputs":[{"name":"","type":"address","internalType":"address payable"}],"stateMutability":"view"},{"type":"function","name":"isAlive","inputs":[{"name":"antId","type":"uint256","internalType":"uint256"}],"outputs":[{"name":"","type":"bool","internalType":"bool"}],"stateMutability":"view"},{"type":"function","name":"isApprovedForAll","inputs":[{"name":"owner","type":"address","internalType":"address"},{"name":"operator","type":"address","internalType":"address"}],"outputs":[{"name":"","type":"bool","internalType":"bool"}],"stateMutability":"view"},{"type":"function","name":"keyHash","inputs":[],"outputs":[{"name":"","type":"bytes32","internalType":"bytes32"}],"stateMutability":"view"},{"type":"function","name":"layEggs","inputs":[{"name":"_antId","type":"uint256","internalType":"uint256"}],"outputs":[{"name":"requestId","type":"uint256","internalType":"uint256"}],"stateMutability":"nonpayable"},{"type":"function","name":"locked","inputs":[],"outputs":[{"name":"","type":"bool","internalType":"bool"}],"stateMutability":"view"},{"type":"function","name":"name","inputs":[],"outputs":[{"name":"","type":"string","internalType":"string"}],"stateMutability":"view"},{"type":"function","name":"owner","inputs":[],"outputs":[{"name":"","type":"address","internalType":"address"}],"stateMutability":"view"},{"type":"function","name":"ownerOf","inputs":[{"name":"tokenId","type":"uint256","internalType":"uint256"}],"outputs":[{"name":"","type":"address","internalType":"address"}],"stateMutability":"view"},{"type":"function","name":"pause","inputs":[],"outputs":[],"stateMutability":"nonpayable"},{"type":"function","name":"paused","inputs":[],"outputs":[{"name":"","type":"bool","internalType":"bool"}],"stateMutability":"view"},{"type":"function","name":"rawFulfillRandomWords","inputs":[{"name":"requestId","type":"uint256","internalType":"uint256"},{"name":"randomWords","type":"uint256[]","internalType":"uint256[]"}],"outputs":[],"stateMutability":"nonpayable"},{"type":"function","name":"requestToAnt","inputs":[{"name":"","type":"uint256","internalType":"uint256"}],"outputs":[{"name":"","type":"uint256","internalType":"uint256"}],"stateMutability":"view"},{"type":"function","name":"s_vrfCoordinator","inputs":[],"outputs":[{"name":"","type":"address","internalType":"contract IVRFCoordinatorV2Plus"}],"stateMutability":"view"},{"type":"function","name":"safeTransferFrom","inputs":[{"name":"from","type":"address","internalType":"address"},{"name":"to","type":"address","internalType":"address"},{"name":"tokenId","type":"uint256","internalType":"uint256"}],"outputs":[],"stateMutability":"nonpayable"},{"type":"function","name":"safeTransferFrom","inputs":[{"name":"from","type":"address","internalType":"address"},{"name":"to","type":"address","internalType":"address"},{"name":"tokenId","type":"uint256","internalType":"uint256"},{"name":"data","type":"bytes","internalType":"bytes"}],"outputs":[],"stateMutability":"nonpayable"},{"type":"function","name":"sellAnt","inputs":[{"name":"_antId","type":"uint256","internalType":"uint256"},{"name":"amount","type":"uint256","internalType":"uint256"}],"outputs":[],"stateMutability":"nonpayable"},{"type":"function","name":"setApprovalForAll","inputs":[{"name":"operator","type":"address","internalType":"address"},{"name":"approved","type":"bool","internalType":"bool"}],"outputs":[],"stateMutability":"nonpayable"},{"type":"function","name":"setCoordinator","inputs":[{"name":"_vrfCoordinator","type":"address","internalType":"address"}],"outputs":[],"stateMutability":"nonpayable"},{"type":"function","name":"setPrice","inputs":[{"name":"newPrice","type":"uint256","internalType":"uint256"}],"outputs":[],"stateMutability":"nonpayable"},{"type":"function","name":"subscriptionId","inputs":[],"outputs":[{"name":"","type":"uint256","internalType":"uint256"}],"stateMutability":"view"},{"type":"function","name":"supportsInterface","inputs":[{"name":"interfaceId","type":"bytes4","internalType":"bytes4"}],"outputs":[{"name":"","type":"bool","internalType":"bool"}],"stateMutability":"view"},{"type":"function","name":"symbol","inputs":[],"outputs":[{"name":"","type":"string","internalType":"string"}],"stateMutability":"view"},{"type":"function","name":"tokenURI","inputs":[{"name":"tokenId","type":"uint256","internalType":"uint256"}],"outputs":[{"name":"","type":"string","internalType":"string"}],"stateMutability":"view"},{"type":"function","name":"transferFrom","inputs":[{"name":"from","type":"address","internalType":"address"},{"name":"to","type":"address","internalType":"address"},{"name":"tokenId","type":"uint256","internalType":"uint256"}],"outputs":[],"stateMutability":"nonpayable"},{"type":"function","name":"transferOwnership","inputs":[{"name":"to","type":"address","internalType":"address"}],"outputs":[],"stateMutability":"nonpayable"},{"type":"function","name":"unpause","inputs":[],"outputs":[],"stateMutability":"nonpayable"},{"type":"function","name":"vrfCoordinatorV2_5","inputs":[],"outputs":[{"name":"","type":"address","internalType":"address"}],"stateMutability":"view"},{"type":"function","name":"withdraw","inputs":[],"outputs":[],"stateMutability":"nonpayable"},{"type":"event","name":"AntCreated","inputs":[{"name":"antId","type":"uint256","indexed":true,"internalType":"uint256"},{"name":"antOwner","type":"address","indexed":true,"internalType":"address"}],"anonymous":false},{"type":"event","name":"AntDied","inputs":[{"name":"antId","type":"uint256","indexed":true,"internalType":"uint256"}],"anonymous":false},{"type":"event","name":"AntSold","inputs":[{"name":"_antId","type":"uint256","indexed":true,"internalType":"uint256"},{"name":"amountsoldFor","type":"uint256","indexed":true,"internalType":"uint256"}],"anonymous":false},{"type":"event","name":"Approval","inputs":[{"name":"owner","type":"address","indexed":true,"internalType":"address"},{"name":"approved","type":"address","indexed":true,"internalType":"address"},{"name":"tokenId","type":"uint256","indexed":true,"internalType":"uint256"}],"anonymous":false},{"type":"event","name":"ApprovalForAll","inputs":[{"name":"owner","type":"address","indexed":true,"internalType":"address"},{"name":"operator","type":"address","indexed":true,"internalType":"address"},{"name":"approved","type":"bool","indexed":false,"internalType":"bool"}],"anonymous":false},{"type":"event","name":"CoordinatorSet","inputs":[{"name":"vrfCoordinator","type":"address","indexed":false,"internalType":"address"}],"anonymous":false},{"type":"event","name":"EggsBought","inputs":[{"name":"buyer","type":"address","indexed":true,"internalType":"address"},{"name":"eggsBought","type":"uint256","indexed":true,"internalType":"uint256"}],"anonymous":false},{"type":"event","name":"EggsLayed","inputs":[{"name":"antOwner","type":"address","indexed":true,"internalType":"address"},{"name":"numberOfEggs","type":"uint256","indexed":true,"internalType":"uint256"}],"anonymous":false},{"type":"event","name":"OwnershipTransferRequested","inputs":[{"name":"from","type":"address","indexed":true,"internalType":"address"},{"name":"to","type":"address","indexed":true,"internalType":"address"}],"anonymous":false},{"type":"event","name":"OwnershipTransferred","inputs":[{"name":"from","type":"address","indexed":true,"internalType":"address"},{"name":"to","type":"address","indexed":true,"internalType":"address"}],"anonymous":false},{"type":"event","name":"Paused","inputs":[{"name":"account","type":"address","indexed":false,"internalType":"address"}],"anonymous":false},{"type":"event","name":"PriceChanged","inputs":[{"name":"eggPrice","type":"uint256","indexed":true,"internalType":"uint256"},{"name":"antPrice","type":"uint256","indexed":true,"internalType":"uint256"}],"anonymous":false},{"type":"event","name":"RandomnessRequested","inputs":[{"name":"requestId","type":"uint256","indexed":true,"internalType":"uint256"}],"anonymous":false},{"type":"event","name":"Transfer","inputs":[{"name":"from","type":"address","indexed":true,"internalType":"address"},{"name":"to","type":"address","indexed":true,"internalType":"address"},{"name":"tokenId","type":"uint256","indexed":true,"internalType":"uint256"}],"anonymous":false},{"type":"event","name":"Unpaused","inputs":[{"name":"account","type":"address","indexed":false,"internalType":"address"}],"anonymous":false},{"type":"error","name":"CryptoAnts_AntNotAlive","inputs":[]},{"type":"error","name":"CryptoAnts_CantSellDeadAnt","inputs":[]},{"type":"error","name":"CryptoAnts_CooldownNotComplete","inputs":[]},{"type":"error","name":"CryptoAnts_InCorrectAmount","inputs":[]},{"type":"error","name":"CryptoAnts_IncorrectPriceStrategy","inputs":[]},{"type":"error","name":"CryptoAnts_InvalidAntOwner","inputs":[]},{"type":"error","name":"CryptoAnts_MaxAntPriceExceeded","inputs":[]},{"type":"error","name":"CryptoAnts_NoBalance","inputs":[]},{"type":"error","name":"CryptoAnts_NoEggs","inputs":[]},{"type":"error","name":"CryptoAnts_NoZeroAddress","inputs":[]},{"type":"error","name":"CryptoAnts_OnwerExists","inputs":[]},{"type":"error","name":"CryptoAnts_UnauthorizedAccess","inputs":[]},{"type":"error","name":"ERC721IncorrectOwner","inputs":[{"name":"sender","type":"address","internalType":"address"},{"name":"tokenId","type":"uint256","internalType":"uint256"},{"name":"owner","type":"address","internalType":"address"}]},{"type":"error","name":"ERC721InsufficientApproval","inputs":[{"name":"operator","type":"address","internalType":"address"},{"name":"tokenId","type":"uint256","internalType":"uint256"}]},{"type":"error","name":"ERC721InvalidApprover","inputs":[{"name":"approver","type":"address","internalType":"address"}]},{"type":"error","name":"ERC721InvalidOperator","inputs":[{"name":"operator","type":"address","internalType":"address"}]},{"type":"error","name":"ERC721InvalidOwner","inputs":[{"name":"owner","type":"address","internalType":"address"}]},{"type":"error","name":"ERC721InvalidReceiver","inputs":[{"name":"receiver","type":"address","internalType":"address"}]},{"type":"error","name":"ERC721InvalidSender","inputs":[{"name":"sender","type":"address","internalType":"address"}]},{"type":"error","name":"ERC721NonexistentToken","inputs":[{"name":"tokenId","type":"uint256","internalType":"uint256"}]},{"type":"error","name":"EnforcedPause","inputs":[]},{"type":"error","name":"ExpectedPause","inputs":[]},{"type":"error","name":"OnlyCoordinatorCanFulfill","inputs":[{"name":"have","type":"address","internalType":"address"},{"name":"want","type":"address","internalType":"address"}]},{"type":"error","name":"OnlyOwnerOrCoordinator","inputs":[{"name":"have","type":"address","internalType":"address"},{"name":"owner","type":"address","internalType":"address"},{"name":"coordinator","type":"address","internalType":"address"}]},{"type":"error","name":"ReentrancyGuraded","inputs":[]},{"type":"error","name":"ZeroAddress","inputs":[]}],"bytecode":{"object":"0x6101206040527f787d74caea10b2b357790d5b5247c2f63d1d91572a9846f780606e4d953677ae600a55620186a0608052601460c052662386f26fc10000600c55660e35fa931a0000600d55603c60e052610258610100526005600f553480156200006957600080fd5b5060405162003697380380620036978339810160408190526200008c916200030a565b80338060006040518060400160405280600b81526020016a43727970746f20416e747360a81b81525060405180604001604052806004815260200163414e545360e01b8152508160009081620000e3919062000403565b506001620000f2828262000403565b50506006805460ff19169055506001600160a01b0382166200015b5760405162461bcd60e51b815260206004820152601860248201527f43616e6e6f7420736574206f776e657220746f207a65726f000000000000000060448201526064015b60405180910390fd5b600680546001600160a01b0380851661010002610100600160a81b031990921691909117909155811615620001955762000195816200023b565b5050506001600160a01b038116620001c05760405163d92e233d60e01b815260040160405180910390fd5b600880546001600160a01b0319166001600160a01b0392831617905584811660a05282166200020257604051630a12ae1160e11b815260040160405180910390fd5b600992909255601080546001600160a01b039283166001600160a01b031991821617909155600b805492909316911617905550620004cf565b336001600160a01b03821603620002955760405162461bcd60e51b815260206004820152601760248201527f43616e6e6f74207472616e7366657220746f2073656c66000000000000000000604482015260640162000152565b600780546001600160a01b0319166001600160a01b03838116918217909255600654604051919261010090910416907fed8889f560326eb138920d842192f0eb3dd22b4f139c87a2c57538e05bae127890600090a350565b80516001600160a01b03811681146200030557600080fd5b919050565b600080600080608085870312156200032157600080fd5b6200032c85620002ed565b9350602085015192506200034360408601620002ed565b91506200035360608601620002ed565b905092959194509250565b634e487b7160e01b600052604160045260246000fd5b600181811c908216806200038957607f821691505b602082108103620003aa57634e487b7160e01b600052602260045260246000fd5b50919050565b601f821115620003fe57600081815260208120601f850160051c81016020861015620003d95750805b601f850160051c820191505b81811015620003fa57828155600101620003e5565b5050505b505050565b81516001600160401b038111156200041f576200041f6200035e565b620004378162000430845462000374565b84620003b0565b602080601f8311600181146200046f5760008415620004565750858301515b600019600386901b1c1916600185901b178555620003fa565b600085815260208120601f198616915b82811015620004a0578886015182559484019460019091019084016200047f565b5085821015620004bf5787850151600019600388901b60f8161c191681555b5050505050600190811b01905550565b60805160a05160c05160e0516101005161316062000537600039600061196401526000818161051e015261152301526000611c1f01526000818161078b01528181610c5f01528181610da8015281816111310152611cf1015260006119ed01526131606000f3fe6080604052600436106102e75760003560e01c80636352211e11610184578063a22cb465116100d6578063cf3090121161008a578063e0af6c8411610064578063e0af6c8414610832578063e985e9c514610848578063f2fde38b1461089157600080fd5b8063cf309012146107ad578063d84b2361146107df578063dcc8c2d91461081257600080fd5b8063b88d4fde116100bb578063b88d4fde14610739578063c87b56dd14610759578063c8aae2381461077957600080fd5b8063a22cb465146106f9578063abb53f4a1461071957600080fd5b80638456cb591161013857806391b7f5ed1161011257806391b7f5ed146106a457806395d89b41146106c45780639eccacf6146106d957600080fd5b80638456cb591461064c5780638da5cb5b146106615780638ea981171461068457600080fd5b80636f9fb98a116101695780636f9fb98a1461060457806370a082311461061757806379ba50971461063757600080fd5b80636352211e146105b7578063655832b0146105d757600080fd5b8063305e35521161023d5780634152fa00116101f1578063520f7c0e116101cb578063520f7c0e146105735780635c975abb1461058957806361728f39146105a157600080fd5b80634152fa001461050c57806342842e0e146105405780634fd535961461056057600080fd5b80633ccfd60b116102225780633ccfd60b146104cd5780633d871229146104e25780633f4ba83a146104f757600080fd5b8063305e35521461049757806330ca2806146104ad57600080fd5b80630c340a241161029f57806323b872dd1161027957806323b872dd1461044d578063248452bd1461046d5780632e61a7bf1461048257600080fd5b80630c340a24146103c1578063109dcfe6146103e15780631fe543e31461042d57600080fd5b8063081812fc116102d0578063081812fc14610343578063095ea7b31461037b57806309c1ba2e1461039d57600080fd5b806301ffc9a7146102ec57806306fdde0314610321575b600080fd5b3480156102f857600080fd5b5061030c610307366004612ab9565b6108b1565b60405190151581526020015b60405180910390f35b34801561032d57600080fd5b50610336610996565b6040516103189190612b44565b34801561034f57600080fd5b5061036361035e366004612b57565b610a28565b6040516001600160a01b039091168152602001610318565b34801561038757600080fd5b5061039b610396366004612b8c565b610a51565b005b3480156103a957600080fd5b506103b360095481565b604051908152602001610318565b3480156103cd57600080fd5b50601054610363906001600160a01b031681565b3480156103ed57600080fd5b506104186103fc366004612b57565b6011602052600090815260409020805460019091015460ff1682565b60408051928352901515602083015201610318565b34801561043957600080fd5b5061039b610448366004612bb6565b610a60565b34801561045957600080fd5b5061039b610468366004612c35565b610ace565b34801561047957600080fd5b50600d546103b3565b34801561048e57600080fd5b506103b3610b8b565b3480156104a357600080fd5b506103b3600c5481565b3480156104b957600080fd5b50600b54610363906001600160a01b031681565b3480156104d957600080fd5b5061039b610e6e565b3480156104ee57600080fd5b50600e546103b3565b34801561050357600080fd5b5061039b610f9c565b34801561051857600080fd5b506103b37f000000000000000000000000000000000000000000000000000000000000000081565b34801561054c57600080fd5b5061039b61055b366004612c35565b610fae565b61039b61056e366004612b57565b610fc9565b34801561057f57600080fd5b506103b3600d5481565b34801561059557600080fd5b5060065460ff1661030c565b3480156105ad57600080fd5b506103b3600a5481565b3480156105c357600080fd5b506103636105d2366004612b57565b6111c1565b3480156105e357600080fd5b506103b36105f2366004612b57565b60126020526000908152604090205481565b34801561061057600080fd5b50476103b3565b34801561062357600080fd5b506103b3610632366004612c71565b6111cc565b34801561064357600080fd5b5061039b61122d565b34801561065857600080fd5b5061039b61133a565b34801561066d57600080fd5b5060065461010090046001600160a01b0316610363565b34801561069057600080fd5b5061039b61069f366004612c71565b61134a565b3480156106b057600080fd5b5061039b6106bf366004612b57565b61148e565b3480156106d057600080fd5b50610336611593565b3480156106e557600080fd5b50600854610363906001600160a01b031681565b34801561070557600080fd5b5061039b610714366004612c8c565b6115a2565b34801561072557600080fd5b5061039b610734366004612cc8565b6115ad565b34801561074557600080fd5b5061039b610754366004612d19565b61182b565b34801561076557600080fd5b50610336610774366004612b57565b611843565b34801561078557600080fd5b506103637f000000000000000000000000000000000000000000000000000000000000000081565b3480156107b957600080fd5b50600b5461030c9074010000000000000000000000000000000000000000900460ff1681565b3480156107eb57600080fd5b5061030c6107fa366004612b57565b60009081526011602052604090206001015460ff1690565b34801561081e57600080fd5b506103b361082d366004612b57565b6118b8565b34801561083e57600080fd5b506103b3600f5481565b34801561085457600080fd5b5061030c610863366004612e13565b6001600160a01b03918216600090815260056020908152604080832093909416825291909152205460ff1690565b34801561089d57600080fd5b5061039b6108ac366004612c71565b611af8565b60007fffffffff0000000000000000000000000000000000000000000000000000000082167f80ac58cd00000000000000000000000000000000000000000000000000000000148061094457507fffffffff0000000000000000000000000000000000000000000000000000000082167f5b5e139f00000000000000000000000000000000000000000000000000000000145b8061099057507f01ffc9a7000000000000000000000000000000000000000000000000000000007fffffffff000000000000000000000000000000000000000000000000000000008316145b92915050565b6060600080546109a590612e46565b80601f01602080910402602001604051908101604052809291908181526020018280546109d190612e46565b8015610a1e5780601f106109f357610100808354040283529160200191610a1e565b820191906000526020600020905b815481529060010190602001808311610a0157829003601f168201915b5050505050905090565b6000610a3382611b0c565b506000828152600460205260409020546001600160a01b0316610990565b610a5c828233611b5e565b5050565b6008546001600160a01b03163314610abe576008546040517f1cf993f40000000000000000000000000000000000000000000000000000000081523360048201526001600160a01b0390911660248201526044015b60405180910390fd5b610ac9838383611b6b565b505050565b6001600160a01b038216610b11576040517f64a0ae9200000000000000000000000000000000000000000000000000000000815260006004820152602401610ab5565b6000610b1e838333611d56565b9050836001600160a01b0316816001600160a01b031614610b85576040517f64283d7b0000000000000000000000000000000000000000000000000000000081526001600160a01b0380861660048301526024820184905282166044820152606401610ab5565b50505050565b600b5460009074010000000000000000000000000000000000000000900460ff161515600103610be7576040517f2823afd400000000000000000000000000000000000000000000000000000000815260040160405180910390fd5b600b80547fffffffffffffffffffffff00ffffffffffffffffffffffffffffffffffffffff16740100000000000000000000000000000000000000001790556040517f70a082310000000000000000000000000000000000000000000000000000000081523360048201526001906001600160a01b037f000000000000000000000000000000000000000000000000000000000000000016906370a0823190602401602060405180830381865afa158015610ca6573d6000803e3d6000fd5b505050506040513d601f19601f82011682018060405250810190610cca9190612e99565b1015610d02576040517f37911f0200000000000000000000000000000000000000000000000000000000815260040160405180910390fd5b600e60008154610d1190612ee1565b9182905550604080518082018252428152600160208083018281526000868152601190925290849020925183555191810180547fffffffffffffffffffffffffffffffffffffffffffffffffffffffffffffff00169215159290921790915590517f3262bf3900000000000000000000000000000000000000000000000000000000815233600482015260248101919091529091507f00000000000000000000000000000000000000000000000000000000000000006001600160a01b031690633262bf3990604401600060405180830381600087803b158015610df457600080fd5b505af1158015610e08573d6000803e3d6000fd5b50506040513392508391507f21251aeaec8b20fdd1f8998b78a5f299f550504eeedea3298ae98638f6b2eae490600090a3610e433382611d6b565b600b80547fffffffffffffffffffffff00ffffffffffffffffffffffffffffffffffffffff16905590565b6010546001600160a01b03163314610eb2576040517f67b22fda00000000000000000000000000000000000000000000000000000000815260040160405180910390fd5b4747610eea576040517f9fae7a2500000000000000000000000000000000000000000000000000000000815260040160405180910390fd5b604051600090339083908381818185875af1925050503d8060008114610f2c576040519150601f19603f3d011682016040523d82523d6000602084013e610f31565b606091505b5050905080610a5c576040517f08c379a000000000000000000000000000000000000000000000000000000000815260206004820152601960248201527f57686f6f70732c20746869732063616c6c206661696c656421000000000000006044820152606401610ab5565b610fa4611d85565b610fac611dfe565b565b610ac98383836040518060200160405280600081525061182b565b600b5474010000000000000000000000000000000000000000900460ff161515600103611022576040517f2823afd400000000000000000000000000000000000000000000000000000000815260040160405180910390fd5b600b80547fffffffffffffffffffffff00ffffffffffffffffffffffffffffffffffffffff1674010000000000000000000000000000000000000000179055600c54600090611072908390612f19565b90508034146110ad576040517f4d5984ac00000000000000000000000000000000000000000000000000000000815260040160405180910390fd5b604051819033907fecedcda9002dd5028204a70dddaa2155459b6dff3c3e20543450a189e736dc4990600090a36110fc6040518060600160405280602581526020016131066025913933611e6e565b6040517f40c10f19000000000000000000000000000000000000000000000000000000008152336004820152602481018390527f00000000000000000000000000000000000000000000000000000000000000006001600160a01b0316906340c10f1990604401600060405180830381600087803b15801561117d57600080fd5b505af1158015611191573d6000803e3d6000fd5b5050600b80547fffffffffffffffffffffff00ffffffffffffffffffffffffffffffffffffffff16905550505050565b600061099082611b0c565b60006001600160a01b038216611211576040517f89c62b6400000000000000000000000000000000000000000000000000000000815260006004820152602401610ab5565b506001600160a01b031660009081526003602052604090205490565b6007546001600160a01b031633146112a1576040517f08c379a000000000000000000000000000000000000000000000000000000000815260206004820152601660248201527f4d7573742062652070726f706f736564206f776e6572000000000000000000006044820152606401610ab5565b600680547fffffffffffffffffffffff0000000000000000000000000000000000000000ff81166101003381810292909217909355600780547fffffffffffffffffffffffff0000000000000000000000000000000000000000169055604051929091046001600160a01b03169182907f8be0079c531659141344cd1fd0a4f28419497f9722a3daafe3b4186f6b6457e090600090a350565b611342611d85565b610fac611eff565b60065461010090046001600160a01b03166001600160a01b0316336001600160a01b03161415801561138757506008546001600160a01b03163314155b156113e2576006546008546040517f061db9c10000000000000000000000000000000000000000000000000000000081523360048201526001600160a01b036101009093048316602482015291166044820152606401610ab5565b6001600160a01b038116611422576040517fd92e233d00000000000000000000000000000000000000000000000000000000815260040160405180910390fd5b600880547fffffffffffffffffffffffff0000000000000000000000000000000000000000166001600160a01b0383169081179091556040519081527fd1a6a14209a385a964d036e404cb5cfb71f4000cdb03c9366292430787261be69060200160405180910390a150565b6010546001600160a01b031633146114d2576040517f67b22fda00000000000000000000000000000000000000000000000000000000815260040160405180910390fd5b8015806114e05750600d5481105b15611517576040517f370f762500000000000000000000000000000000000000000000000000000000815260040160405180910390fd5b600c81905560646115487f000000000000000000000000000000000000000000000000000000000000000082612f30565b600c546115559190612f19565b61155f9190612f72565b600d819055600c546040517f8aa4fa52648a6d15edce8a179c792c86f3719d0cc3c572cf90f91948f0f2cb6890600090a350565b6060600180546109a590612e46565b610a5c338383611f5a565b600b5474010000000000000000000000000000000000000000900460ff161515600103611606576040517f2823afd400000000000000000000000000000000000000000000000000000000815260040160405180910390fd5b600b80547fffffffffffffffffffffff00ffffffffffffffffffffffffffffffffffffffff16740100000000000000000000000000000000000000001790553361164f836111c1565b6001600160a01b03161461168f576040517f5033045500000000000000000000000000000000000000000000000000000000815260040160405180910390fd5b60008281526011602052604090206001015460ff166116da576040517ff478bfe300000000000000000000000000000000000000000000000000000000815260040160405180910390fd5b600d54811115611716576040517faab15aea00000000000000000000000000000000000000000000000000000000815260040160405180910390fd5b61171f82612030565b604051819083907fd89980afb5155b9220a22ee997da991cbf7b51814afb63f5a56c55986358196d90600090a3604051600090339083908381818185875af1925050503d806000811461178e576040519150601f19603f3d011682016040523d82523d6000602084013e611793565b606091505b50509050806117fe576040517f08c379a000000000000000000000000000000000000000000000000000000000815260206004820152601960248201527f57686f6f70732c20746869732063616c6c206661696c656421000000000000006044820152606401610ab5565b5050600b80547fffffffffffffffffffffff00ffffffffffffffffffffffffffffffffffffffff16905550565b611836848484610ace565b610b853385858585612084565b606061184e82611b0c565b50600061186660408051602081019091526000815290565b9050600081511161188657604051806020016040528060008152506118b1565b8061189084612248565b6040516020016118a1929190612f86565b6040516020818303038152906040525b9392505050565b6000336118c4836111c1565b6001600160a01b031614611904576040517f5033045500000000000000000000000000000000000000000000000000000000815260040160405180910390fd5b60008281526011602052604090206001015460ff1661194f576040517f3effbff800000000000000000000000000000000000000000000000000000000815260040160405180910390fd5b600082815260116020526040902054611989907f000000000000000000000000000000000000000000000000000000000000000090612fb5565b4210156119c2576040517fc96e6dba00000000000000000000000000000000000000000000000000000000815260040160405180910390fd5b6008546040805160c081018252600a54815260095460208083019190915260038284015263ffffffff7f0000000000000000000000000000000000000000000000000000000000000000166060830152600260808301528251908101909252600082526001600160a01b0390921691639b1c385e9160a0820190611a4590612306565b8152506040518263ffffffff1660e01b8152600401611a649190612fc8565b6020604051808303816000875af1158015611a83573d6000803e3d6000fd5b505050506040513d601f19601f82011682018060405250810190611aa79190612e99565b600083815260116020908152604080832042905583835260129091528082208590555191925082917f9ac10fb18c93d33ad7b0a941897aef048d0f8d30756684e82b4552ba12764d459190a2919050565b611b00611d85565b611b09816123c2565b50565b6000818152600260205260408120546001600160a01b031680610990576040517f7e27328900000000000000000000000000000000000000000000000000000000815260048101849052602401610ab5565b610ac983838360016124a4565b60008381526012602052604081205490606484848381611b8d57611b8d613025565b90506020020135611b9e9190613054565b9050600f54811015611c185760008281526011602052604080822060010180547fffffffffffffffffffffffffffffffffffffffffffffffffffffffffffffff001690555183917f9fa2baaf8e92576613bb52bebefd36aa850b89fc1157cee6d7a92679303a3c5991a2611c1182612030565b5050505050565b6000611c457f00000000000000000000000000000000000000000000000000000000000000006001613068565b60ff1685856001818110611c5b57611c5b613025565b90506020020135611c6c9190613054565b90506000611c79846111c1565b905081816001600160a01b03167f2a436a2248e5ab028740afc87909b942f161f288d12962820a4545acae8ea3a460405160405180910390a36040517f40c10f190000000000000000000000000000000000000000000000000000000081526001600160a01b038281166004830152602482018490527f000000000000000000000000000000000000000000000000000000000000000016906340c10f1990604401600060405180830381600087803b158015611d3557600080fd5b505af1158015611d49573d6000803e3d6000fd5b5050505050505050505050565b6000611d638484846125fa565b949350505050565b610a5c82826040518060200160405280600081525061260f565b60065461010090046001600160a01b03163314610fac576040517f08c379a000000000000000000000000000000000000000000000000000000000815260206004820152601660248201527f4f6e6c792063616c6c61626c65206279206f776e6572000000000000000000006044820152606401610ab5565b611e06612627565b600680547fffffffffffffffffffffffffffffffffffffffffffffffffffffffffffffff001690557f5db9ee0a495bf2e6ff9c91a7834c1ba4fdd244a5e8aa4e537bd38aeae4b073aa335b6040516001600160a01b03909116815260200160405180910390a1565b610a5c8282604051602401611e84929190613081565b604080517fffffffffffffffffffffffffffffffffffffffffffffffffffffffffffffffe08184030181529190526020810180517bffffffffffffffffffffffffffffffffffffffffffffffffffffffff167f319af33300000000000000000000000000000000000000000000000000000000179052612663565b611f0761266c565b600680547fffffffffffffffffffffffffffffffffffffffffffffffffffffffffffffff001660011790557f62e78cea01bee320cd4e420270b5ea74000d11b0c9f74754ebdbfc544b05a258611e513390565b6001600160a01b038216611fa5576040517f5b08ba180000000000000000000000000000000000000000000000000000000081526001600160a01b0383166004820152602401610ab5565b6001600160a01b0383811660008181526005602090815260408083209487168084529482529182902080547fffffffffffffffffffffffffffffffffffffffffffffffffffffffffffffff001686151590811790915591519182527f17307eab39ab6107e8899845ad3d59bd9653f200f220920489ca2b5937696c31910160405180910390a3505050565b600061203f6000836000611d56565b90506001600160a01b038116610a5c576040517f7e27328900000000000000000000000000000000000000000000000000000000815260048101839052602401610ab5565b6001600160a01b0383163b15611c11576040517f150b7a020000000000000000000000000000000000000000000000000000000081526001600160a01b0384169063150b7a02906120df9088908890879087906004016130ac565b6020604051808303816000875af1925050508015612138575060408051601f3d9081017fffffffffffffffffffffffffffffffffffffffffffffffffffffffffffffffe0168201909252612135918101906130e8565b60015b6121ba573d808015612166576040519150601f19603f3d011682016040523d82523d6000602084013e61216b565b606091505b5080516000036121b2576040517f64a0ae920000000000000000000000000000000000000000000000000000000081526001600160a01b0385166004820152602401610ab5565b805181602001fd5b7fffffffff0000000000000000000000000000000000000000000000000000000081167f150b7a020000000000000000000000000000000000000000000000000000000014612240576040517f64a0ae920000000000000000000000000000000000000000000000000000000081526001600160a01b0385166004820152602401610ab5565b505050505050565b60606000612255836126a9565b600101905060008167ffffffffffffffff81111561227557612275612cea565b6040519080825280601f01601f19166020018201604052801561229f576020820181803683370190505b5090508181016020015b7fffffffffffffffffffffffffffffffffffffffffffffffffffffffffffffffff017f3031323334353637383961626364656600000000000000000000000000000000600a86061a8153600a85049450846122a957509392505050565b60607f92fd13387c7fe7befbc38d303d6468778fb9731bc4583f17d92989c6fcfdeaaa8260405160240161233f91511515815260200190565b604080517fffffffffffffffffffffffffffffffffffffffffffffffffffffffffffffffe08184030181529190526020810180517bffffffffffffffffffffffffffffffffffffffffffffffffffffffff167fffffffff000000000000000000000000000000000000000000000000000000009093169290921790915292915050565b336001600160a01b03821603612434576040517f08c379a000000000000000000000000000000000000000000000000000000000815260206004820152601760248201527f43616e6e6f74207472616e7366657220746f2073656c660000000000000000006044820152606401610ab5565b600780547fffffffffffffffffffffffff0000000000000000000000000000000000000000166001600160a01b03838116918217909255600654604051919261010090910416907fed8889f560326eb138920d842192f0eb3dd22b4f139c87a2c57538e05bae127890600090a350565b80806124b857506001600160a01b03821615155b156125b25760006124c884611b0c565b90506001600160a01b038316158015906124f45750826001600160a01b0316816001600160a01b031614155b801561252657506001600160a01b0380821660009081526005602090815260408083209387168352929052205460ff16155b15612568576040517fa9fbf51f0000000000000000000000000000000000000000000000000000000081526001600160a01b0384166004820152602401610ab5565b81156125b05783856001600160a01b0316826001600160a01b03167f8c5be1e5ebec7d5bd14f71427d1e84f3dd0314c0f7b2291e5b200ac8c7c3b92560405160405180910390a45b505b5050600090815260046020526040902080547fffffffffffffffffffffffff0000000000000000000000000000000000000000166001600160a01b0392909216919091179055565b600061260461266c565b611d6384848461278b565b61261983836128ba565b610ac9336000858585612084565b60065460ff16610fac576040517f8dfc202b00000000000000000000000000000000000000000000000000000000815260040160405180910390fd5b611b0981612951565b60065460ff1615610fac576040517fd93c066500000000000000000000000000000000000000000000000000000000815260040160405180910390fd5b6000807a184f03e93ff9f4daa797ed6e38ed64bf6a1f01000000000000000083106126f2577a184f03e93ff9f4daa797ed6e38ed64bf6a1f010000000000000000830492506040015b6d04ee2d6d415b85acef8100000000831061271e576d04ee2d6d415b85acef8100000000830492506020015b662386f26fc10000831061273c57662386f26fc10000830492506010015b6305f5e1008310612754576305f5e100830492506008015b612710831061276857612710830492506004015b6064831061277a576064830492506002015b600a83106109905760010192915050565b6000828152600260205260408120546001600160a01b03908116908316156127b8576127b8818486612972565b6001600160a01b03811615612814576127d56000856000806124a4565b6001600160a01b038116600090815260036020526040902080547fffffffffffffffffffffffffffffffffffffffffffffffffffffffffffffffff0190555b6001600160a01b03851615612843576001600160a01b0385166000908152600360205260409020805460010190555b60008481526002602052604080822080547fffffffffffffffffffffffff0000000000000000000000000000000000000000166001600160a01b0389811691821790925591518793918516917fddf252ad1be2c89b69c2b068fc378daa952ba7f163c4a11628f55a4df523b3ef91a4949350505050565b6001600160a01b0382166128fd576040517f64a0ae9200000000000000000000000000000000000000000000000000000000815260006004820152602401610ab5565b600061290b83836000611d56565b90506001600160a01b03811615610ac9576040517f73c6ac6e00000000000000000000000000000000000000000000000000000000815260006004820152602401610ab5565b60006a636f6e736f6c652e6c6f679050600080835160208501845afa505050565b61297d838383612a08565b610ac9576001600160a01b0383166129c4576040517f7e27328900000000000000000000000000000000000000000000000000000000815260048101829052602401610ab5565b6040517f177e802f0000000000000000000000000000000000000000000000000000000081526001600160a01b038316600482015260248101829052604401610ab5565b60006001600160a01b03831615801590611d635750826001600160a01b0316846001600160a01b03161480612a6257506001600160a01b0380851660009081526005602090815260408083209387168352929052205460ff165b80611d635750506000908152600460205260409020546001600160a01b03908116911614919050565b7fffffffff0000000000000000000000000000000000000000000000000000000081168114611b0957600080fd5b600060208284031215612acb57600080fd5b81356118b181612a8b565b60005b83811015612af1578181015183820152602001612ad9565b50506000910152565b60008151808452612b12816020860160208601612ad6565b601f017fffffffffffffffffffffffffffffffffffffffffffffffffffffffffffffffe0169290920160200192915050565b6020815260006118b16020830184612afa565b600060208284031215612b6957600080fd5b5035919050565b80356001600160a01b0381168114612b8757600080fd5b919050565b60008060408385031215612b9f57600080fd5b612ba883612b70565b946020939093013593505050565b600080600060408486031215612bcb57600080fd5b83359250602084013567ffffffffffffffff80821115612bea57600080fd5b818601915086601f830112612bfe57600080fd5b813581811115612c0d57600080fd5b8760208260051b8501011115612c2257600080fd5b6020830194508093505050509250925092565b600080600060608486031215612c4a57600080fd5b612c5384612b70565b9250612c6160208501612b70565b9150604084013590509250925092565b600060208284031215612c8357600080fd5b6118b182612b70565b60008060408385031215612c9f57600080fd5b612ca883612b70565b915060208301358015158114612cbd57600080fd5b809150509250929050565b60008060408385031215612cdb57600080fd5b50508035926020909101359150565b7f4e487b7100000000000000000000000000000000000000000000000000000000600052604160045260246000fd5b60008060008060808587031215612d2f57600080fd5b612d3885612b70565b9350612d4660208601612b70565b925060408501359150606085013567ffffffffffffffff80821115612d6a57600080fd5b818701915087601f830112612d7e57600080fd5b813581811115612d9057612d90612cea565b604051601f82017fffffffffffffffffffffffffffffffffffffffffffffffffffffffffffffffe0908116603f01168101908382118183101715612dd657612dd6612cea565b816040528281528a6020848701011115612def57600080fd5b82602086016020830137600060208483010152809550505050505092959194509250565b60008060408385031215612e2657600080fd5b612e2f83612b70565b9150612e3d60208401612b70565b90509250929050565b600181811c90821680612e5a57607f821691505b602082108103612e93577f4e487b7100000000000000000000000000000000000000000000000000000000600052602260045260246000fd5b50919050565b600060208284031215612eab57600080fd5b5051919050565b7f4e487b7100000000000000000000000000000000000000000000000000000000600052601160045260246000fd5b60007fffffffffffffffffffffffffffffffffffffffffffffffffffffffffffffffff8203612f1257612f12612eb2565b5060010190565b808202811582820484141761099057610990612eb2565b8181038181111561099057610990612eb2565b7f4e487b7100000000000000000000000000000000000000000000000000000000600052601260045260246000fd5b600082612f8157612f81612f43565b500490565b60008351612f98818460208801612ad6565b835190830190612fac818360208801612ad6565b01949350505050565b8082018082111561099057610990612eb2565b60208152815160208201526020820151604082015261ffff60408301511660608201526000606083015163ffffffff80821660808501528060808601511660a0850152505060a083015160c080840152611d6360e0840182612afa565b7f4e487b7100000000000000000000000000000000000000000000000000000000600052603260045260246000fd5b60008261306357613063612f43565b500690565b60ff818116838216019081111561099057610990612eb2565b6040815260006130946040830185612afa565b90506001600160a01b03831660208301529392505050565b60006001600160a01b038087168352808616602084015250836040830152608060608301526130de6080830184612afa565b9695505050505050565b6000602082840312156130fa57600080fd5b81516118b181612a8b56fe6c6f672066726f6d2063727970746f616e7473204d696e74696e67206567677320666f723aa26469706673582212206e69b6ddf1cf22cc04f297b52babab775d6b5ec9d182e7284649a6962bd0b1e264736f6c63430008140033","linkReferences":{}},"methodIdentifiers":{"EGGS()":"c8aae238","I_ANTSALEDISCOUNT()":"4152fa00","acceptOwnership()":"79ba5097","antPrice()":"520f7c0e","ants(uint256)":"109dcfe6","approve(address,uint256)":"095ea7b3","balanceOf(address)":"70a08231","buyEggs(uint256)":"4fd53596","createAnt()":"2e61a7bf","deathChance()":"e0af6c84","eggPrice()":"305e3552","getAntPrice()":"248452bd","getAntsCreated()":"3d871229","getApproved(uint256)":"081812fc","getContractBalance()":"6f9fb98a","governor()":"0c340a24","isAlive(uint256)":"d84b2361","isApprovedForAll(address,address)":"e985e9c5","keyHash()":"61728f39","layEggs(uint256)":"dcc8c2d9","locked()":"cf309012","name()":"06fdde03","owner()":"8da5cb5b","ownerOf(uint256)":"6352211e","pause()":"8456cb59","paused()":"5c975abb","rawFulfillRandomWords(uint256,uint256[])":"1fe543e3","requestToAnt(uint256)":"655832b0","s_vrfCoordinator()":"9eccacf6","safeTransferFrom(address,address,uint256)":"42842e0e","safeTransferFrom(address,address,uint256,bytes)":"b88d4fde","sellAnt(uint256,uint256)":"abb53f4a","setApprovalForAll(address,bool)":"a22cb465","setCoordinator(address)":"8ea98117","setPrice(uint256)":"91b7f5ed","subscriptionId()":"09c1ba2e","supportsInterface(bytes4)":"01ffc9a7","symbol()":"95d89b41","tokenURI(uint256)":"c87b56dd","transferFrom(address,address,uint256)":"23b872dd","transferOwnership(address)":"f2fde38b","unpause()":"3f4ba83a","vrfCoordinatorV2_5()":"30ca2806","withdraw()":"3ccfd60b"},"id":54}