{"abi":[{"type":"constructor","inputs":[{"name":"_eggs","type":"address","internalType":"address"},{"name":"_subscriptionId","type":"uint256","internalType":"uint256"},{"name":"_governor","type":"address","internalType":"address"},{"name":"_vrfCoordinatorV2_5","type":"address","internalType":"address"}],"stateMutability":"nonpayable"},{"type":"function","name":"EGGS","inputs":[],"outputs":[{"name":"","type":"address","internalType":"contract IEgg"}],"stateMutability":"view"},{"type":"function","name":"I_ANTSALEDISCOUNT","inputs":[],"outputs":[{"name":"","type":"uint256","internalType":"uint256"}],"stateMutability":"view"},{"type":"function","name":"acceptOwnership","inputs":[],"outputs":[],"stateMutability":"nonpayable"},{"type":"function","name":"antPrice","inputs":[],"outputs":[{"name":"","type":"uint256","internalType":"uint256"}],"stateMutability":"view"},{"type":"function","name":"ants","inputs":[{"name":"","type":"uint256","internalType":"uint256"}],"outputs":[{"name":"lastLayTime","type":"uint256","internalType":"uint256"},{"name":"isAlive","type":"bool","internalType":"bool"}],"stateMutability":"view"},{"type":"function","name":"approve","inputs":[{"name":"to","type":"address","internalType":"address"},{"name":"tokenId","type":"uint256","internalType":"uint256"}],"outputs":[],"stateMutability":"nonpayable"},{"type":"function","name":"balanceOf","inputs":[{"name":"owner","type":"address","internalType":"address"}],"outputs":[{"name":"","type":"uint256","internalType":"uint256"}],"stateMutability":"view"},{"type":"function","name":"buyEggs","inputs":[{"name":"_numberOfEggs","type":"uint256","internalType":"uint256"}],"outputs":[],"stateMutability":"payable"},{"type":"function","name":"createAnt","inputs":[],"outputs":[{"name":"_antId","type":"uint256","internalType":"uint256"}],"stateMutability":"nonpayable"},{"type":"function","name":"deathChance","inputs":[],"outputs":[{"name":"","type":"uint256","internalType":"uint256"}],"stateMutability":"view"},{"type":"function","name":"eggPrice","inputs":[],"outputs":[{"name":"","type":"uint256","internalType":"uint256"}],"stateMutability":"view"},{"type":"function","name":"getAntPrice","inputs":[],"outputs":[{"name":"","type":"uint256","internalType":"uint256"}],"stateMutability":"view"},{"type":"function","name":"getAntsCreated","inputs":[],"outputs":[{"name":"","type":"uint256","internalType":"uint256"}],"stateMutability":"view"},{"type":"function","name":"getApproved","inputs":[{"name":"tokenId","type":"uint256","internalType":"uint256"}],"outputs":[{"name":"","type":"address","internalType":"address"}],"stateMutability":"view"},{"type":"function","name":"getContractBalance","inputs":[],"outputs":[{"name":"","type":"uint256","internalType":"uint256"}],"stateMutability":"view"},{"type":"function","name":"governor","inputs":[],"outputs":[{"name":"","type":"address","internalType":"address payable"}],"stateMutability":"view"},{"type":"function","name":"isAlive","inputs":[{"name":"antId","type":"uint256","internalType":"uint256"}],"outputs":[{"name":"","type":"bool","internalType":"bool"}],"stateMutability":"view"},{"type":"function","name":"isApprovedForAll","inputs":[{"name":"owner","type":"address","internalType":"address"},{"name":"operator","type":"address","internalType":"address"}],"outputs":[{"name":"","type":"bool","internalType":"bool"}],"stateMutability":"view"},{"type":"function","name":"keyHash","inputs":[],"outputs":[{"name":"","type":"bytes32","internalType":"bytes32"}],"stateMutability":"view"},{"type":"function","name":"layEggs","inputs":[{"name":"_antId","type":"uint256","internalType":"uint256"}],"outputs":[{"name":"requestId","type":"uint256","internalType":"uint256"}],"stateMutability":"nonpayable"},{"type":"function","name":"locked","inputs":[],"outputs":[{"name":"","type":"bool","internalType":"bool"}],"stateMutability":"view"},{"type":"function","name":"name","inputs":[],"outputs":[{"name":"","type":"string","internalType":"string"}],"stateMutability":"view"},{"type":"function","name":"owner","inputs":[],"outputs":[{"name":"","type":"address","internalType":"address"}],"stateMutability":"view"},{"type":"function","name":"ownerOf","inputs":[{"name":"tokenId","type":"uint256","internalType":"uint256"}],"outputs":[{"name":"","type":"address","internalType":"address"}],"stateMutability":"view"},{"type":"function","name":"pause","inputs":[],"outputs":[],"stateMutability":"nonpayable"},{"type":"function","name":"paused","inputs":[],"outputs":[{"name":"","type":"bool","internalType":"bool"}],"stateMutability":"view"},{"type":"function","name":"rawFulfillRandomWords","inputs":[{"name":"requestId","type":"uint256","internalType":"uint256"},{"name":"randomWords","type":"uint256[]","internalType":"uint256[]"}],"outputs":[],"stateMutability":"nonpayable"},{"type":"function","name":"requestToAnt","inputs":[{"name":"","type":"uint256","internalType":"uint256"}],"outputs":[{"name":"","type":"uint256","internalType":"uint256"}],"stateMutability":"view"},{"type":"function","name":"s_vrfCoordinator","inputs":[],"outputs":[{"name":"","type":"address","internalType":"contract IVRFCoordinatorV2Plus"}],"stateMutability":"view"},{"type":"function","name":"safeTransferFrom","inputs":[{"name":"from","type":"address","internalType":"address"},{"name":"to","type":"address","internalType":"address"},{"name":"tokenId","type":"uint256","internalType":"uint256"}],"outputs":[],"stateMutability":"nonpayable"},{"type":"function","name":"safeTransferFrom","inputs":[{"name":"from","type":"address","internalType":"address"},{"name":"to","type":"address","internalType":"address"},{"name":"tokenId","type":"uint256","internalType":"uint256"},{"name":"data","type":"bytes","internalType":"bytes"}],"outputs":[],"stateMutability":"nonpayable"},{"type":"function","name":"sellAnt","inputs":[{"name":"_antId","type":"uint256","internalType":"uint256"}],"outputs":[],"stateMutability":"nonpayable"},{"type":"function","name":"setApprovalForAll","inputs":[{"name":"operator","type":"address","internalType":"address"},{"name":"approved","type":"bool","internalType":"bool"}],"outputs":[],"stateMutability":"nonpayable"},{"type":"function","name":"setCoordinator","inputs":[{"name":"_vrfCoordinator","type":"address","internalType":"address"}],"outputs":[],"stateMutability":"nonpayable"},{"type":"function","name":"setPrice","inputs":[{"name":"newPrice","type":"uint256","internalType":"uint256"}],"outputs":[],"stateMutability":"nonpayable"},{"type":"function","name":"subscriptionId","inputs":[],"outputs":[{"name":"","type":"uint256","internalType":"uint256"}],"stateMutability":"view"},{"type":"function","name":"supportsInterface","inputs":[{"name":"interfaceId","type":"bytes4","internalType":"bytes4"}],"outputs":[{"name":"","type":"bool","internalType":"bool"}],"stateMutability":"view"},{"type":"function","name":"symbol","inputs":[],"outputs":[{"name":"","type":"string","internalType":"string"}],"stateMutability":"view"},{"type":"function","name":"tokenURI","inputs":[{"name":"tokenId","type":"uint256","internalType":"uint256"}],"outputs":[{"name":"","type":"string","internalType":"string"}],"stateMutability":"view"},{"type":"function","name":"transferFrom","inputs":[{"name":"from","type":"address","internalType":"address"},{"name":"to","type":"address","internalType":"address"},{"name":"tokenId","type":"uint256","internalType":"uint256"}],"outputs":[],"stateMutability":"nonpayable"},{"type":"function","name":"transferOwnership","inputs":[{"name":"to","type":"address","internalType":"address"}],"outputs":[],"stateMutability":"nonpayable"},{"type":"function","name":"unpause","inputs":[],"outputs":[],"stateMutability":"nonpayable"},{"type":"function","name":"vrfCoordinatorV2_5","inputs":[],"outputs":[{"name":"","type":"address","internalType":"address"}],"stateMutability":"view"},{"type":"function","name":"withdraw","inputs":[],"outputs":[],"stateMutability":"nonpayable"},{"type":"event","name":"AntCreated","inputs":[{"name":"antId","type":"uint256","indexed":true,"internalType":"uint256"},{"name":"antOwner","type":"address","indexed":true,"internalType":"address"}],"anonymous":false},{"type":"event","name":"AntDied","inputs":[{"name":"antId","type":"uint256","indexed":true,"internalType":"uint256"}],"anonymous":false},{"type":"event","name":"AntSold","inputs":[{"name":"_antId","type":"uint256","indexed":true,"internalType":"uint256"}],"anonymous":false},{"type":"event","name":"Approval","inputs":[{"name":"owner","type":"address","indexed":true,"internalType":"address"},{"name":"approved","type":"address","indexed":true,"internalType":"address"},{"name":"tokenId","type":"uint256","indexed":true,"internalType":"uint256"}],"anonymous":false},{"type":"event","name":"ApprovalForAll","inputs":[{"name":"owner","type":"address","indexed":true,"internalType":"address"},{"name":"operator","type":"address","indexed":true,"internalType":"address"},{"name":"approved","type":"bool","indexed":false,"internalType":"bool"}],"anonymous":false},{"type":"event","name":"CoordinatorSet","inputs":[{"name":"vrfCoordinator","type":"address","indexed":false,"internalType":"address"}],"anonymous":false},{"type":"event","name":"EggsBought","inputs":[{"name":"buyer","type":"address","indexed":true,"internalType":"address"},{"name":"eggsBought","type":"uint256","indexed":true,"internalType":"uint256"}],"anonymous":false},{"type":"event","name":"EggsLayed","inputs":[{"name":"antOwner","type":"address","indexed":true,"internalType":"address"},{"name":"numberOfEggs","type":"uint256","indexed":true,"internalType":"uint256"}],"anonymous":false},{"type":"event","name":"OwnershipTransferRequested","inputs":[{"name":"from","type":"address","indexed":true,"internalType":"address"},{"name":"to","type":"address","indexed":true,"internalType":"address"}],"anonymous":false},{"type":"event","name":"OwnershipTransferred","inputs":[{"name":"from","type":"address","indexed":true,"internalType":"address"},{"name":"to","type":"address","indexed":true,"internalType":"address"}],"anonymous":false},{"type":"event","name":"Paused","inputs":[{"name":"account","type":"address","indexed":false,"internalType":"address"}],"anonymous":false},{"type":"event","name":"PriceChanged","inputs":[{"name":"eggPrice","type":"uint256","indexed":true,"internalType":"uint256"},{"name":"antPrice","type":"uint256","indexed":true,"internalType":"uint256"}],"anonymous":false},{"type":"event","name":"RandomnessRequested","inputs":[{"name":"requestId","type":"uint256","indexed":true,"internalType":"uint256"}],"anonymous":false},{"type":"event","name":"Transfer","inputs":[{"name":"from","type":"address","indexed":true,"internalType":"address"},{"name":"to","type":"address","indexed":true,"internalType":"address"},{"name":"tokenId","type":"uint256","indexed":true,"internalType":"uint256"}],"anonymous":false},{"type":"event","name":"Unpaused","inputs":[{"name":"account","type":"address","indexed":false,"internalType":"address"}],"anonymous":false},{"type":"error","name":"CryptoAnts_AntNotAlive","inputs":[]},{"type":"error","name":"CryptoAnts_CantSellDeadAnt","inputs":[]},{"type":"error","name":"CryptoAnts_CooldownNotComplete","inputs":[]},{"type":"error","name":"CryptoAnts_InCorrectAmount","inputs":[]},{"type":"error","name":"CryptoAnts_IncorrectPriceStrategy","inputs":[]},{"type":"error","name":"CryptoAnts_InvalidAntOwner","inputs":[]},{"type":"error","name":"CryptoAnts_NoBalance","inputs":[]},{"type":"error","name":"CryptoAnts_NoEggs","inputs":[]},{"type":"error","name":"CryptoAnts_OnwerExists","inputs":[]},{"type":"error","name":"CryptoAnts_UnauthorizedAccess","inputs":[]},{"type":"error","name":"ERC721IncorrectOwner","inputs":[{"name":"sender","type":"address","internalType":"address"},{"name":"tokenId","type":"uint256","internalType":"uint256"},{"name":"owner","type":"address","internalType":"address"}]},{"type":"error","name":"ERC721InsufficientApproval","inputs":[{"name":"operator","type":"address","internalType":"address"},{"name":"tokenId","type":"uint256","internalType":"uint256"}]},{"type":"error","name":"ERC721InvalidApprover","inputs":[{"name":"approver","type":"address","internalType":"address"}]},{"type":"error","name":"ERC721InvalidOperator","inputs":[{"name":"operator","type":"address","internalType":"address"}]},{"type":"error","name":"ERC721InvalidOwner","inputs":[{"name":"owner","type":"address","internalType":"address"}]},{"type":"error","name":"ERC721InvalidReceiver","inputs":[{"name":"receiver","type":"address","internalType":"address"}]},{"type":"error","name":"ERC721InvalidSender","inputs":[{"name":"sender","type":"address","internalType":"address"}]},{"type":"error","name":"ERC721NonexistentToken","inputs":[{"name":"tokenId","type":"uint256","internalType":"uint256"}]},{"type":"error","name":"EnforcedPause","inputs":[]},{"type":"error","name":"ExpectedPause","inputs":[]},{"type":"error","name":"NoZeroAddress","inputs":[]},{"type":"error","name":"OnlyCoordinatorCanFulfill","inputs":[{"name":"have","type":"address","internalType":"address"},{"name":"want","type":"address","internalType":"address"}]},{"type":"error","name":"OnlyOwnerOrCoordinator","inputs":[{"name":"have","type":"address","internalType":"address"},{"name":"owner","type":"address","internalType":"address"},{"name":"coordinator","type":"address","internalType":"address"}]},{"type":"error","name":"ReentrancyGuraded","inputs":[]},{"type":"error","name":"ZeroAddress","inputs":[]}],"bytecode":{"object":"0x6101206040527f787d74caea10b2b357790d5b5247c2f63d1d91572a9846f780606e4d953677ae600a55620186a0608052670de0b6b3a7640000600c55603c60c05261025860e0526014610100526005600f553480156200005f57600080fd5b506040516200331a3803806200331a833981016040819052620000829162000300565b80338060006040518060400160405280600b81526020016a43727970746f20416e747360a81b81525060405180604001604052806004815260200163414e545360e01b8152508160009081620000d99190620003f9565b506001620000e88282620003f9565b50506006805460ff19169055506001600160a01b038216620001515760405162461bcd60e51b815260206004820152601860248201527f43616e6e6f7420736574206f776e657220746f207a65726f000000000000000060448201526064015b60405180910390fd5b600680546001600160a01b0380851661010002610100600160a81b0319909216919091179091558116156200018b576200018b8162000231565b5050506001600160a01b038116620001b65760405163d92e233d60e01b815260040160405180910390fd5b600880546001600160a01b0319166001600160a01b0392831617905584811660a0528216620001f85760405163ddbadd5f60e01b815260040160405180910390fd5b600992909255601080546001600160a01b039283166001600160a01b0319918216179091556011805492909316911617905550620004c5565b336001600160a01b038216036200028b5760405162461bcd60e51b815260206004820152601760248201527f43616e6e6f74207472616e7366657220746f2073656c66000000000000000000604482015260640162000148565b600780546001600160a01b0319166001600160a01b03838116918217909255600654604051919261010090910416907fed8889f560326eb138920d842192f0eb3dd22b4f139c87a2c57538e05bae127890600090a350565b80516001600160a01b0381168114620002fb57600080fd5b919050565b600080600080608085870312156200031757600080fd5b6200032285620002e3565b9350602085015192506200033960408601620002e3565b91506200034960608601620002e3565b905092959194509250565b634e487b7160e01b600052604160045260246000fd5b600181811c908216806200037f57607f821691505b602082108103620003a057634e487b7160e01b600052602260045260246000fd5b50919050565b601f821115620003f457600081815260208120601f850160051c81016020861015620003cf5750805b601f850160051c820191505b81811015620003f057828155600101620003db565b5050505b505050565b81516001600160401b0381111562000415576200041562000354565b6200042d816200042684546200036a565b84620003a6565b602080601f8311600181146200046557600084156200044c5750858301515b600019600386901b1c1916600185901b178555620003f0565b600085815260208120601f198616915b82811015620004965788860151825594840194600190910190840162000475565b5085821015620004b55787850151600019600388901b60f8161c191681555b5050505050600190811b01905550565b60805160a05160c05160e05161010051612ded6200052d6000396000611a330152600061179601526000818161051e01526115d301526000818161078b01528181610bfd01528181610d28015281816110270152611b050152600061181f0152612ded6000f3fe6080604052600436106102e75760003560e01c806361dcb054116101845780639eccacf6116100d6578063cf3090121161008a578063e0af6c8411610064578063e0af6c841461081a578063e985e9c514610830578063f2fde38b1461087957600080fd5b8063cf309012146107ad578063d84b2361146107c7578063dcc8c2d9146107fa57600080fd5b8063b88d4fde116100bb578063b88d4fde14610739578063c87b56dd14610759578063c8aae2381461077957600080fd5b80639eccacf6146106f9578063a22cb4651461071957600080fd5b806379ba5097116101385780638ea98117116101125780638ea98117146106a457806391b7f5ed146106c457806395d89b41146106e457600080fd5b806379ba5097146106575780638456cb591461066c5780638da5cb5b1461068157600080fd5b8063655832b011610169578063655832b0146105f75780636f9fb98a1461062457806370a082311461063757600080fd5b806361dcb054146105b75780636352211e146105d757600080fd5b8063305e35521161023d5780634152fa00116101f1578063520f7c0e116101cb578063520f7c0e146105735780635c975abb1461058957806361728f39146105a157600080fd5b80634152fa001461050c57806342842e0e146105405780634fd535961461056057600080fd5b80633ccfd60b116102225780633ccfd60b146104cd5780633d871229146104e25780633f4ba83a146104f757600080fd5b8063305e35521461049757806330ca2806146104ad57600080fd5b80630c340a241161029f57806323b872dd1161027957806323b872dd1461044d578063248452bd1461046d5780632e61a7bf1461048257600080fd5b80630c340a24146103c1578063109dcfe6146103e15780631fe543e31461042d57600080fd5b8063081812fc116102d0578063081812fc14610343578063095ea7b31461037b57806309c1ba2e1461039d57600080fd5b806301ffc9a7146102ec57806306fdde0314610321575b600080fd5b3480156102f857600080fd5b5061030c6103073660046127b8565b610899565b60405190151581526020015b60405180910390f35b34801561032d57600080fd5b5061033661097e565b6040516103189190612843565b34801561034f57600080fd5b5061036361035e366004612856565b610a10565b6040516001600160a01b039091168152602001610318565b34801561038757600080fd5b5061039b61039636600461288b565b610a39565b005b3480156103a957600080fd5b506103b360095481565b604051908152602001610318565b3480156103cd57600080fd5b50601054610363906001600160a01b031681565b3480156103ed57600080fd5b506104186103fc366004612856565b6012602052600090815260409020805460019091015460ff1682565b60408051928352901515602083015201610318565b34801561043957600080fd5b5061039b6104483660046128b5565b610a48565b34801561045957600080fd5b5061039b610468366004612934565b610ab6565b34801561047957600080fd5b50600d546103b3565b34801561048e57600080fd5b506103b3610b73565b3480156104a357600080fd5b506103b3600c5481565b3480156104b957600080fd5b50601154610363906001600160a01b031681565b3480156104d957600080fd5b5061039b610dd0565b3480156104ee57600080fd5b50600e546103b3565b34801561050357600080fd5b5061039b610efe565b34801561051857600080fd5b506103b37f000000000000000000000000000000000000000000000000000000000000000081565b34801561054c57600080fd5b5061039b61055b366004612934565b610f10565b61039b61056e366004612856565b610f2b565b34801561057f57600080fd5b506103b3600d5481565b34801561059557600080fd5b5060065460ff1661030c565b3480156105ad57600080fd5b506103b3600a5481565b3480156105c357600080fd5b5061039b6105d2366004612856565b611099565b3480156105e357600080fd5b506103636105f2366004612856565b611271565b34801561060357600080fd5b506103b3610612366004612856565b60136020526000908152604090205481565b34801561063057600080fd5b50476103b3565b34801561064357600080fd5b506103b3610652366004612970565b61127c565b34801561066357600080fd5b5061039b6112dd565b34801561067857600080fd5b5061039b6113ea565b34801561068d57600080fd5b5060065461010090046001600160a01b0316610363565b3480156106b057600080fd5b5061039b6106bf366004612970565b6113fa565b3480156106d057600080fd5b5061039b6106df366004612856565b61153e565b3480156106f057600080fd5b50610336611643565b34801561070557600080fd5b50600854610363906001600160a01b031681565b34801561072557600080fd5b5061039b61073436600461298b565b611652565b34801561074557600080fd5b5061039b6107543660046129f6565b61165d565b34801561076557600080fd5b50610336610774366004612856565b611675565b34801561078557600080fd5b506103637f000000000000000000000000000000000000000000000000000000000000000081565b3480156107b957600080fd5b50600b5461030c9060ff1681565b3480156107d357600080fd5b5061030c6107e2366004612856565b60009081526012602052604090206001015460ff1690565b34801561080657600080fd5b506103b3610815366004612856565b6116ea565b34801561082657600080fd5b506103b3600f5481565b34801561083c57600080fd5b5061030c61084b366004612af0565b6001600160a01b03918216600090815260056020908152604080832093909416825291909152205460ff1690565b34801561088557600080fd5b5061039b610894366004612970565b61192a565b60007fffffffff0000000000000000000000000000000000000000000000000000000082167f80ac58cd00000000000000000000000000000000000000000000000000000000148061092c57507fffffffff0000000000000000000000000000000000000000000000000000000082167f5b5e139f00000000000000000000000000000000000000000000000000000000145b8061097857507f01ffc9a7000000000000000000000000000000000000000000000000000000007fffffffff000000000000000000000000000000000000000000000000000000008316145b92915050565b60606000805461098d90612b23565b80601f01602080910402602001604051908101604052809291908181526020018280546109b990612b23565b8015610a065780601f106109db57610100808354040283529160200191610a06565b820191906000526020600020905b8154815290600101906020018083116109e957829003601f168201915b5050505050905090565b6000610a1b8261193e565b506000828152600460205260409020546001600160a01b0316610978565b610a44828233611990565b5050565b6008546001600160a01b03163314610aa6576008546040517f1cf993f40000000000000000000000000000000000000000000000000000000081523360048201526001600160a01b0390911660248201526044015b60405180910390fd5b610ab183838361199d565b505050565b6001600160a01b038216610af9576040517f64a0ae9200000000000000000000000000000000000000000000000000000000815260006004820152602401610a9d565b6000610b06838333611b6a565b9050836001600160a01b0316816001600160a01b031614610b6d576040517f64283d7b0000000000000000000000000000000000000000000000000000000081526001600160a01b0380861660048301526024820184905282166044820152606401610a9d565b50505050565b600b5460009060ff161515600103610bb7576040517f2823afd400000000000000000000000000000000000000000000000000000000815260040160405180910390fd5b600b805460ff191660019081179091556040517f70a082310000000000000000000000000000000000000000000000000000000081523360048201526001600160a01b037f000000000000000000000000000000000000000000000000000000000000000016906370a0823190602401602060405180830381865afa158015610c44573d6000803e3d6000fd5b505050506040513d601f19601f82011682018060405250810190610c689190612b76565b1015610ca0576040517f37911f0200000000000000000000000000000000000000000000000000000000815260040160405180910390fd5b600e60008154610caf90612bbe565b91829055506040805180820182524281526001602080830182815260008681526012909252908490209251835551918101805460ff19169215159290921790915590517f3262bf3900000000000000000000000000000000000000000000000000000000815233600482015260248101919091529091507f00000000000000000000000000000000000000000000000000000000000000006001600160a01b031690633262bf3990604401600060405180830381600087803b158015610d7457600080fd5b505af1158015610d88573d6000803e3d6000fd5b50506040513392508391507f21251aeaec8b20fdd1f8998b78a5f299f550504eeedea3298ae98638f6b2eae490600090a3610dc33382611b7f565b600b805460ff1916905590565b6010546001600160a01b03163314610e14576040517f67b22fda00000000000000000000000000000000000000000000000000000000815260040160405180910390fd5b4747610e4c576040517f9fae7a2500000000000000000000000000000000000000000000000000000000815260040160405180910390fd5b604051600090339083908381818185875af1925050503d8060008114610e8e576040519150601f19603f3d011682016040523d82523d6000602084013e610e93565b606091505b5050905080610a44576040517f08c379a000000000000000000000000000000000000000000000000000000000815260206004820152601960248201527f57686f6f70732c20746869732063616c6c206661696c656421000000000000006044820152606401610a9d565b610f06611b99565b610f0e611c12565b565b610ab18383836040518060200160405280600081525061165d565b600b5460ff161515600103610f6c576040517f2823afd400000000000000000000000000000000000000000000000000000000815260040160405180910390fd5b600b805460ff19166001179055600c54600090610f8a908390612bf6565b9050803414610fc5576040517f4d5984ac00000000000000000000000000000000000000000000000000000000815260040160405180910390fd5b604051819033907fecedcda9002dd5028204a70dddaa2155459b6dff3c3e20543450a189e736dc4990600090a36040517f40c10f19000000000000000000000000000000000000000000000000000000008152336004820152602481018390527f00000000000000000000000000000000000000000000000000000000000000006001600160a01b0316906340c10f1990604401600060405180830381600087803b15801561107357600080fd5b505af1158015611087573d6000803e3d6000fd5b5050600b805460ff1916905550505050565b600b5460ff1615156001036110da576040517f2823afd400000000000000000000000000000000000000000000000000000000815260040160405180910390fd5b600b805460ff19166001179055336110f182611271565b6001600160a01b031614611131576040517f5033045500000000000000000000000000000000000000000000000000000000815260040160405180910390fd5b60008181526012602052604090206001015460ff1661117c576040517ff478bfe300000000000000000000000000000000000000000000000000000000815260040160405180910390fd5b61118581611c64565b60405181907f41a91426d97d842d6ed4c70099ed35651b100d0bc6fdefd8cda4c0ce4352afc990600090a2600d5460405160009133918381818185875af1925050503d80600081146111f3576040519150601f19603f3d011682016040523d82523d6000602084013e6111f8565b606091505b5050905080611263576040517f08c379a000000000000000000000000000000000000000000000000000000000815260206004820152601960248201527f57686f6f70732c20746869732063616c6c206661696c656421000000000000006044820152606401610a9d565b5050600b805460ff19169055565b60006109788261193e565b60006001600160a01b0382166112c1576040517f89c62b6400000000000000000000000000000000000000000000000000000000815260006004820152602401610a9d565b506001600160a01b031660009081526003602052604090205490565b6007546001600160a01b03163314611351576040517f08c379a000000000000000000000000000000000000000000000000000000000815260206004820152601660248201527f4d7573742062652070726f706f736564206f776e6572000000000000000000006044820152606401610a9d565b600680547fffffffffffffffffffffff0000000000000000000000000000000000000000ff81166101003381810292909217909355600780547fffffffffffffffffffffffff0000000000000000000000000000000000000000169055604051929091046001600160a01b03169182907f8be0079c531659141344cd1fd0a4f28419497f9722a3daafe3b4186f6b6457e090600090a350565b6113f2611b99565b610f0e611cb8565b60065461010090046001600160a01b03166001600160a01b0316336001600160a01b03161415801561143757506008546001600160a01b03163314155b15611492576006546008546040517f061db9c10000000000000000000000000000000000000000000000000000000081523360048201526001600160a01b036101009093048316602482015291166044820152606401610a9d565b6001600160a01b0381166114d2576040517fd92e233d00000000000000000000000000000000000000000000000000000000815260040160405180910390fd5b600880547fffffffffffffffffffffffff0000000000000000000000000000000000000000166001600160a01b0383169081179091556040519081527fd1a6a14209a385a964d036e404cb5cfb71f4000cdb03c9366292430787261be69060200160405180910390a150565b6010546001600160a01b03163314611582576040517f67b22fda00000000000000000000000000000000000000000000000000000000815260040160405180910390fd5b8015806115905750600d5481105b156115c7576040517f370f762500000000000000000000000000000000000000000000000000000000815260040160405180910390fd5b600c81905560646115f87f000000000000000000000000000000000000000000000000000000000000000082612c0d565b600c546116059190612bf6565b61160f9190612c4f565b600d819055600c546040517f8aa4fa52648a6d15edce8a179c792c86f3719d0cc3c572cf90f91948f0f2cb6890600090a350565b60606001805461098d90612b23565b610a44338383611cf5565b611668848484610ab6565b610b6d3385858585611dad565b60606116808261193e565b50600061169860408051602081019091526000815290565b905060008151116116b857604051806020016040528060008152506116e3565b806116c284611f71565b6040516020016116d3929190612c63565b6040516020818303038152906040525b9392505050565b6000336116f683611271565b6001600160a01b031614611736576040517f5033045500000000000000000000000000000000000000000000000000000000815260040160405180910390fd5b60008281526012602052604090206001015460ff16611781576040517f3effbff800000000000000000000000000000000000000000000000000000000815260040160405180910390fd5b6000828152601260205260409020546117bb907f000000000000000000000000000000000000000000000000000000000000000090612c92565b4210156117f4576040517fc96e6dba00000000000000000000000000000000000000000000000000000000815260040160405180910390fd5b6008546040805160c081018252600a54815260095460208083019190915260038284015263ffffffff7f0000000000000000000000000000000000000000000000000000000000000000166060830152600260808301528251908101909252600082526001600160a01b0390921691639b1c385e9160a08201906118779061202f565b8152506040518263ffffffff1660e01b81526004016118969190612ca5565b6020604051808303816000875af11580156118b5573d6000803e3d6000fd5b505050506040513d601f19601f820116820180604052508101906118d99190612b76565b600083815260126020908152604080832042905583835260139091528082208590555191925082917f9ac10fb18c93d33ad7b0a941897aef048d0f8d30756684e82b4552ba12764d459190a2919050565b611932611b99565b61193b816120eb565b50565b6000818152600260205260408120546001600160a01b031680610978576040517f7e27328900000000000000000000000000000000000000000000000000000000815260048101849052602401610a9d565b610ab183838360016121cd565b600083815260136020526040812054906064848483816119bf576119bf612d02565b905060200201356119d09190612d31565b9050600f54811015611a2c57600082815260126020526040808220600101805460ff191690555183917f9fa2baaf8e92576613bb52bebefd36aa850b89fc1157cee6d7a92679303a3c5991a2611a2582611c64565b5050505050565b6000611a597f00000000000000000000000000000000000000000000000000000000000000006001612d45565b60ff1685856001818110611a6f57611a6f612d02565b90506020020135611a809190612d31565b90506000611a8d84611271565b905081816001600160a01b03167f2a436a2248e5ab028740afc87909b942f161f288d12962820a4545acae8ea3a460405160405180910390a36040517f40c10f190000000000000000000000000000000000000000000000000000000081526001600160a01b038281166004830152602482018490527f000000000000000000000000000000000000000000000000000000000000000016906340c10f1990604401600060405180830381600087803b158015611b4957600080fd5b505af1158015611b5d573d6000803e3d6000fd5b5050505050505050505050565b6000611b77848484612323565b949350505050565b610a44828260405180602001604052806000815250612338565b60065461010090046001600160a01b03163314610f0e576040517f08c379a000000000000000000000000000000000000000000000000000000000815260206004820152601660248201527f4f6e6c792063616c6c61626c65206279206f776e6572000000000000000000006044820152606401610a9d565b611c1a612350565b6006805460ff191690557f5db9ee0a495bf2e6ff9c91a7834c1ba4fdd244a5e8aa4e537bd38aeae4b073aa335b6040516001600160a01b03909116815260200160405180910390a1565b6000611c736000836000611b6a565b90506001600160a01b038116610a44576040517f7e27328900000000000000000000000000000000000000000000000000000000815260048101839052602401610a9d565b611cc061238c565b6006805460ff191660011790557f62e78cea01bee320cd4e420270b5ea74000d11b0c9f74754ebdbfc544b05a258611c473390565b6001600160a01b038216611d40576040517f5b08ba180000000000000000000000000000000000000000000000000000000081526001600160a01b0383166004820152602401610a9d565b6001600160a01b03838116600081815260056020908152604080832094871680845294825291829020805460ff191686151590811790915591519182527f17307eab39ab6107e8899845ad3d59bd9653f200f220920489ca2b5937696c31910160405180910390a3505050565b6001600160a01b0383163b15611a25576040517f150b7a020000000000000000000000000000000000000000000000000000000081526001600160a01b0384169063150b7a0290611e08908890889087908790600401612d5e565b6020604051808303816000875af1925050508015611e61575060408051601f3d9081017fffffffffffffffffffffffffffffffffffffffffffffffffffffffffffffffe0168201909252611e5e91810190612d9a565b60015b611ee3573d808015611e8f576040519150601f19603f3d011682016040523d82523d6000602084013e611e94565b606091505b508051600003611edb576040517f64a0ae920000000000000000000000000000000000000000000000000000000081526001600160a01b0385166004820152602401610a9d565b805181602001fd5b7fffffffff0000000000000000000000000000000000000000000000000000000081167f150b7a020000000000000000000000000000000000000000000000000000000014611f69576040517f64a0ae920000000000000000000000000000000000000000000000000000000081526001600160a01b0385166004820152602401610a9d565b505050505050565b60606000611f7e836123c9565b600101905060008167ffffffffffffffff811115611f9e57611f9e6129c7565b6040519080825280601f01601f191660200182016040528015611fc8576020820181803683370190505b5090508181016020015b7fffffffffffffffffffffffffffffffffffffffffffffffffffffffffffffffff017f3031323334353637383961626364656600000000000000000000000000000000600a86061a8153600a8504945084611fd257509392505050565b60607f92fd13387c7fe7befbc38d303d6468778fb9731bc4583f17d92989c6fcfdeaaa8260405160240161206891511515815260200190565b604080517fffffffffffffffffffffffffffffffffffffffffffffffffffffffffffffffe08184030181529190526020810180517bffffffffffffffffffffffffffffffffffffffffffffffffffffffff167fffffffff000000000000000000000000000000000000000000000000000000009093169290921790915292915050565b336001600160a01b0382160361215d576040517f08c379a000000000000000000000000000000000000000000000000000000000815260206004820152601760248201527f43616e6e6f74207472616e7366657220746f2073656c660000000000000000006044820152606401610a9d565b600780547fffffffffffffffffffffffff0000000000000000000000000000000000000000166001600160a01b03838116918217909255600654604051919261010090910416907fed8889f560326eb138920d842192f0eb3dd22b4f139c87a2c57538e05bae127890600090a350565b80806121e157506001600160a01b03821615155b156122db5760006121f18461193e565b90506001600160a01b0383161580159061221d5750826001600160a01b0316816001600160a01b031614155b801561224f57506001600160a01b0380821660009081526005602090815260408083209387168352929052205460ff16155b15612291576040517fa9fbf51f0000000000000000000000000000000000000000000000000000000081526001600160a01b0384166004820152602401610a9d565b81156122d95783856001600160a01b0316826001600160a01b03167f8c5be1e5ebec7d5bd14f71427d1e84f3dd0314c0f7b2291e5b200ac8c7c3b92560405160405180910390a45b505b5050600090815260046020526040902080547fffffffffffffffffffffffff0000000000000000000000000000000000000000166001600160a01b0392909216919091179055565b600061232d61238c565b611b778484846124ab565b61234283836125da565b610ab1336000858585611dad565b60065460ff16610f0e576040517f8dfc202b00000000000000000000000000000000000000000000000000000000815260040160405180910390fd5b60065460ff1615610f0e576040517fd93c066500000000000000000000000000000000000000000000000000000000815260040160405180910390fd5b6000807a184f03e93ff9f4daa797ed6e38ed64bf6a1f0100000000000000008310612412577a184f03e93ff9f4daa797ed6e38ed64bf6a1f010000000000000000830492506040015b6d04ee2d6d415b85acef8100000000831061243e576d04ee2d6d415b85acef8100000000830492506020015b662386f26fc10000831061245c57662386f26fc10000830492506010015b6305f5e1008310612474576305f5e100830492506008015b612710831061248857612710830492506004015b6064831061249a576064830492506002015b600a83106109785760010192915050565b6000828152600260205260408120546001600160a01b03908116908316156124d8576124d8818486612671565b6001600160a01b03811615612534576124f56000856000806121cd565b6001600160a01b038116600090815260036020526040902080547fffffffffffffffffffffffffffffffffffffffffffffffffffffffffffffffff0190555b6001600160a01b03851615612563576001600160a01b0385166000908152600360205260409020805460010190555b60008481526002602052604080822080547fffffffffffffffffffffffff0000000000000000000000000000000000000000166001600160a01b0389811691821790925591518793918516917fddf252ad1be2c89b69c2b068fc378daa952ba7f163c4a11628f55a4df523b3ef91a4949350505050565b6001600160a01b03821661261d576040517f64a0ae9200000000000000000000000000000000000000000000000000000000815260006004820152602401610a9d565b600061262b83836000611b6a565b90506001600160a01b03811615610ab1576040517f73c6ac6e00000000000000000000000000000000000000000000000000000000815260006004820152602401610a9d565b61267c838383612707565b610ab1576001600160a01b0383166126c3576040517f7e27328900000000000000000000000000000000000000000000000000000000815260048101829052602401610a9d565b6040517f177e802f0000000000000000000000000000000000000000000000000000000081526001600160a01b038316600482015260248101829052604401610a9d565b60006001600160a01b03831615801590611b775750826001600160a01b0316846001600160a01b0316148061276157506001600160a01b0380851660009081526005602090815260408083209387168352929052205460ff165b80611b775750506000908152600460205260409020546001600160a01b03908116911614919050565b7fffffffff000000000000000000000000000000000000000000000000000000008116811461193b57600080fd5b6000602082840312156127ca57600080fd5b81356116e38161278a565b60005b838110156127f05781810151838201526020016127d8565b50506000910152565b600081518084526128118160208601602086016127d5565b601f017fffffffffffffffffffffffffffffffffffffffffffffffffffffffffffffffe0169290920160200192915050565b6020815260006116e360208301846127f9565b60006020828403121561286857600080fd5b5035919050565b80356001600160a01b038116811461288657600080fd5b919050565b6000806040838503121561289e57600080fd5b6128a78361286f565b946020939093013593505050565b6000806000604084860312156128ca57600080fd5b83359250602084013567ffffffffffffffff808211156128e957600080fd5b818601915086601f8301126128fd57600080fd5b81358181111561290c57600080fd5b8760208260051b850101111561292157600080fd5b6020830194508093505050509250925092565b60008060006060848603121561294957600080fd5b6129528461286f565b92506129606020850161286f565b9150604084013590509250925092565b60006020828403121561298257600080fd5b6116e38261286f565b6000806040838503121561299e57600080fd5b6129a78361286f565b9150602083013580151581146129bc57600080fd5b809150509250929050565b7f4e487b7100000000000000000000000000000000000000000000000000000000600052604160045260246000fd5b60008060008060808587031215612a0c57600080fd5b612a158561286f565b9350612a236020860161286f565b925060408501359150606085013567ffffffffffffffff80821115612a4757600080fd5b818701915087601f830112612a5b57600080fd5b813581811115612a6d57612a6d6129c7565b604051601f82017fffffffffffffffffffffffffffffffffffffffffffffffffffffffffffffffe0908116603f01168101908382118183101715612ab357612ab36129c7565b816040528281528a6020848701011115612acc57600080fd5b82602086016020830137600060208483010152809550505050505092959194509250565b60008060408385031215612b0357600080fd5b612b0c8361286f565b9150612b1a6020840161286f565b90509250929050565b600181811c90821680612b3757607f821691505b602082108103612b70577f4e487b7100000000000000000000000000000000000000000000000000000000600052602260045260246000fd5b50919050565b600060208284031215612b8857600080fd5b5051919050565b7f4e487b7100000000000000000000000000000000000000000000000000000000600052601160045260246000fd5b60007fffffffffffffffffffffffffffffffffffffffffffffffffffffffffffffffff8203612bef57612bef612b8f565b5060010190565b808202811582820484141761097857610978612b8f565b8181038181111561097857610978612b8f565b7f4e487b7100000000000000000000000000000000000000000000000000000000600052601260045260246000fd5b600082612c5e57612c5e612c20565b500490565b60008351612c758184602088016127d5565b835190830190612c898183602088016127d5565b01949350505050565b8082018082111561097857610978612b8f565b60208152815160208201526020820151604082015261ffff60408301511660608201526000606083015163ffffffff80821660808501528060808601511660a0850152505060a083015160c080840152611b7760e08401826127f9565b7f4e487b7100000000000000000000000000000000000000000000000000000000600052603260045260246000fd5b600082612d4057612d40612c20565b500690565b60ff818116838216019081111561097857610978612b8f565b60006001600160a01b03808716835280861660208401525083604083015260806060830152612d9060808301846127f9565b9695505050505050565b600060208284031215612dac57600080fd5b81516116e38161278a56fea2646970667358221220223d54a43fb63a74a5eab95f13a1376f3056b4a13f1ee64993600b87aae5405964736f6c63430008140033","linkReferences":{}},"methodIdentifiers":{"EGGS()":"c8aae238","I_ANTSALEDISCOUNT()":"4152fa00","acceptOwnership()":"79ba5097","antPrice()":"520f7c0e","ants(uint256)":"109dcfe6","approve(address,uint256)":"095ea7b3","balanceOf(address)":"70a08231","buyEggs(uint256)":"4fd53596","createAnt()":"2e61a7bf","deathChance()":"e0af6c84","eggPrice()":"305e3552","getAntPrice()":"248452bd","getAntsCreated()":"3d871229","getApproved(uint256)":"081812fc","getContractBalance()":"6f9fb98a","governor()":"0c340a24","isAlive(uint256)":"d84b2361","isApprovedForAll(address,address)":"e985e9c5","keyHash()":"61728f39","layEggs(uint256)":"dcc8c2d9","locked()":"cf309012","name()":"06fdde03","owner()":"8da5cb5b","ownerOf(uint256)":"6352211e","pause()":"8456cb59","paused()":"5c975abb","rawFulfillRandomWords(uint256,uint256[])":"1fe543e3","requestToAnt(uint256)":"655832b0","s_vrfCoordinator()":"9eccacf6","safeTransferFrom(address,address,uint256)":"42842e0e","safeTransferFrom(address,address,uint256,bytes)":"b88d4fde","sellAnt(uint256)":"61dcb054","setApprovalForAll(address,bool)":"a22cb465","setCoordinator(address)":"8ea98117","setPrice(uint256)":"91b7f5ed","subscriptionId()":"09c1ba2e","supportsInterface(bytes4)":"01ffc9a7","symbol()":"95d89b41","tokenURI(uint256)":"c87b56dd","transferFrom(address,address,uint256)":"23b872dd","transferOwnership(address)":"f2fde38b","unpause()":"3f4ba83a","vrfCoordinatorV2_5()":"30ca2806","withdraw()":"3ccfd60b"},"id":53}