{"abi":[{"type":"constructor","inputs":[{"name":"_eggs","type":"address","internalType":"address"},{"name":"_subscriptionId","type":"uint256","internalType":"uint256"},{"name":"_governor","type":"address","internalType":"address"}],"stateMutability":"nonpayable"},{"type":"function","name":"EGGS","inputs":[],"outputs":[{"name":"","type":"address","internalType":"contract IEgg"}],"stateMutability":"view"},{"type":"function","name":"I_ANTSALEDISCOUNT","inputs":[],"outputs":[{"name":"","type":"uint256","internalType":"uint256"}],"stateMutability":"view"},{"type":"function","name":"acceptOwnership","inputs":[],"outputs":[],"stateMutability":"nonpayable"},{"type":"function","name":"antPrice","inputs":[],"outputs":[{"name":"","type":"uint256","internalType":"uint256"}],"stateMutability":"view"},{"type":"function","name":"ants","inputs":[{"name":"","type":"uint256","internalType":"uint256"}],"outputs":[{"name":"lastLayTime","type":"uint256","internalType":"uint256"},{"name":"isAlive","type":"bool","internalType":"bool"}],"stateMutability":"view"},{"type":"function","name":"approve","inputs":[{"name":"to","type":"address","internalType":"address"},{"name":"tokenId","type":"uint256","internalType":"uint256"}],"outputs":[],"stateMutability":"nonpayable"},{"type":"function","name":"balanceOf","inputs":[{"name":"owner","type":"address","internalType":"address"}],"outputs":[{"name":"","type":"uint256","internalType":"uint256"}],"stateMutability":"view"},{"type":"function","name":"buyEggs","inputs":[{"name":"_numberOfEggs","type":"uint256","internalType":"uint256"}],"outputs":[],"stateMutability":"payable"},{"type":"function","name":"createAnt","inputs":[],"outputs":[{"name":"_antId","type":"uint256","internalType":"uint256"}],"stateMutability":"nonpayable"},{"type":"function","name":"deathChance","inputs":[],"outputs":[{"name":"","type":"uint256","internalType":"uint256"}],"stateMutability":"view"},{"type":"function","name":"eggPrice","inputs":[],"outputs":[{"name":"","type":"uint256","internalType":"uint256"}],"stateMutability":"view"},{"type":"function","name":"getAntPrice","inputs":[],"outputs":[{"name":"","type":"uint256","internalType":"uint256"}],"stateMutability":"view"},{"type":"function","name":"getAntsCreated","inputs":[],"outputs":[{"name":"","type":"uint256","internalType":"uint256"}],"stateMutability":"view"},{"type":"function","name":"getApproved","inputs":[{"name":"tokenId","type":"uint256","internalType":"uint256"}],"outputs":[{"name":"","type":"address","internalType":"address"}],"stateMutability":"view"},{"type":"function","name":"getContractBalance","inputs":[],"outputs":[{"name":"","type":"uint256","internalType":"uint256"}],"stateMutability":"view"},{"type":"function","name":"governor","inputs":[],"outputs":[{"name":"","type":"address","internalType":"address payable"}],"stateMutability":"view"},{"type":"function","name":"isApprovedForAll","inputs":[{"name":"owner","type":"address","internalType":"address"},{"name":"operator","type":"address","internalType":"address"}],"outputs":[{"name":"","type":"bool","internalType":"bool"}],"stateMutability":"view"},{"type":"function","name":"keyHash","inputs":[],"outputs":[{"name":"","type":"bytes32","internalType":"bytes32"}],"stateMutability":"view"},{"type":"function","name":"layEggs","inputs":[{"name":"_antId","type":"uint256","internalType":"uint256"}],"outputs":[{"name":"requestId","type":"uint256","internalType":"uint256"}],"stateMutability":"nonpayable"},{"type":"function","name":"locked","inputs":[],"outputs":[{"name":"","type":"bool","internalType":"bool"}],"stateMutability":"view"},{"type":"function","name":"name","inputs":[],"outputs":[{"name":"","type":"string","internalType":"string"}],"stateMutability":"view"},{"type":"function","name":"owner","inputs":[],"outputs":[{"name":"","type":"address","internalType":"address"}],"stateMutability":"view"},{"type":"function","name":"ownerOf","inputs":[{"name":"tokenId","type":"uint256","internalType":"uint256"}],"outputs":[{"name":"","type":"address","internalType":"address"}],"stateMutability":"view"},{"type":"function","name":"pause","inputs":[],"outputs":[],"stateMutability":"nonpayable"},{"type":"function","name":"paused","inputs":[],"outputs":[{"name":"","type":"bool","internalType":"bool"}],"stateMutability":"view"},{"type":"function","name":"rawFulfillRandomWords","inputs":[{"name":"requestId","type":"uint256","internalType":"uint256"},{"name":"randomWords","type":"uint256[]","internalType":"uint256[]"}],"outputs":[],"stateMutability":"nonpayable"},{"type":"function","name":"requestToAnt","inputs":[{"name":"","type":"uint256","internalType":"uint256"}],"outputs":[{"name":"","type":"uint256","internalType":"uint256"}],"stateMutability":"view"},{"type":"function","name":"s_vrfCoordinator","inputs":[],"outputs":[{"name":"","type":"address","internalType":"contract IVRFCoordinatorV2Plus"}],"stateMutability":"view"},{"type":"function","name":"safeTransferFrom","inputs":[{"name":"from","type":"address","internalType":"address"},{"name":"to","type":"address","internalType":"address"},{"name":"tokenId","type":"uint256","internalType":"uint256"}],"outputs":[],"stateMutability":"nonpayable"},{"type":"function","name":"safeTransferFrom","inputs":[{"name":"from","type":"address","internalType":"address"},{"name":"to","type":"address","internalType":"address"},{"name":"tokenId","type":"uint256","internalType":"uint256"},{"name":"data","type":"bytes","internalType":"bytes"}],"outputs":[],"stateMutability":"nonpayable"},{"type":"function","name":"sellAnt","inputs":[{"name":"_antId","type":"uint256","internalType":"uint256"}],"outputs":[],"stateMutability":"nonpayable"},{"type":"function","name":"setApprovalForAll","inputs":[{"name":"operator","type":"address","internalType":"address"},{"name":"approved","type":"bool","internalType":"bool"}],"outputs":[],"stateMutability":"nonpayable"},{"type":"function","name":"setCoordinator","inputs":[{"name":"_vrfCoordinator","type":"address","internalType":"address"}],"outputs":[],"stateMutability":"nonpayable"},{"type":"function","name":"setPrice","inputs":[{"name":"newPrice","type":"uint256","internalType":"uint256"}],"outputs":[],"stateMutability":"nonpayable"},{"type":"function","name":"subscriptionId","inputs":[],"outputs":[{"name":"","type":"uint256","internalType":"uint256"}],"stateMutability":"view"},{"type":"function","name":"supportsInterface","inputs":[{"name":"interfaceId","type":"bytes4","internalType":"bytes4"}],"outputs":[{"name":"","type":"bool","internalType":"bool"}],"stateMutability":"view"},{"type":"function","name":"symbol","inputs":[],"outputs":[{"name":"","type":"string","internalType":"string"}],"stateMutability":"view"},{"type":"function","name":"tokenURI","inputs":[{"name":"tokenId","type":"uint256","internalType":"uint256"}],"outputs":[{"name":"","type":"string","internalType":"string"}],"stateMutability":"view"},{"type":"function","name":"transferFrom","inputs":[{"name":"from","type":"address","internalType":"address"},{"name":"to","type":"address","internalType":"address"},{"name":"tokenId","type":"uint256","internalType":"uint256"}],"outputs":[],"stateMutability":"nonpayable"},{"type":"function","name":"transferOwnership","inputs":[{"name":"to","type":"address","internalType":"address"}],"outputs":[],"stateMutability":"nonpayable"},{"type":"function","name":"unpause","inputs":[],"outputs":[],"stateMutability":"nonpayable"},{"type":"function","name":"withdraw","inputs":[],"outputs":[],"stateMutability":"nonpayable"},{"type":"event","name":"AntCreated","inputs":[{"name":"antId","type":"uint256","indexed":true,"internalType":"uint256"},{"name":"antOwner","type":"address","indexed":true,"internalType":"address"}],"anonymous":false},{"type":"event","name":"AntDied","inputs":[{"name":"antId","type":"uint256","indexed":true,"internalType":"uint256"}],"anonymous":false},{"type":"event","name":"AntSold","inputs":[{"name":"_antId","type":"uint256","indexed":true,"internalType":"uint256"}],"anonymous":false},{"type":"event","name":"Approval","inputs":[{"name":"owner","type":"address","indexed":true,"internalType":"address"},{"name":"approved","type":"address","indexed":true,"internalType":"address"},{"name":"tokenId","type":"uint256","indexed":true,"internalType":"uint256"}],"anonymous":false},{"type":"event","name":"ApprovalForAll","inputs":[{"name":"owner","type":"address","indexed":true,"internalType":"address"},{"name":"operator","type":"address","indexed":true,"internalType":"address"},{"name":"approved","type":"bool","indexed":false,"internalType":"bool"}],"anonymous":false},{"type":"event","name":"CoordinatorSet","inputs":[{"name":"vrfCoordinator","type":"address","indexed":false,"internalType":"address"}],"anonymous":false},{"type":"event","name":"EggsBought","inputs":[{"name":"buyer","type":"address","indexed":true,"internalType":"address"},{"name":"eggsBought","type":"uint256","indexed":true,"internalType":"uint256"}],"anonymous":false},{"type":"event","name":"EggsLayed","inputs":[{"name":"antOwner","type":"address","indexed":true,"internalType":"address"},{"name":"numberOfEggs","type":"uint256","indexed":true,"internalType":"uint256"}],"anonymous":false},{"type":"event","name":"OwnershipTransferRequested","inputs":[{"name":"from","type":"address","indexed":true,"internalType":"address"},{"name":"to","type":"address","indexed":true,"internalType":"address"}],"anonymous":false},{"type":"event","name":"OwnershipTransferred","inputs":[{"name":"from","type":"address","indexed":true,"internalType":"address"},{"name":"to","type":"address","indexed":true,"internalType":"address"}],"anonymous":false},{"type":"event","name":"Paused","inputs":[{"name":"account","type":"address","indexed":false,"internalType":"address"}],"anonymous":false},{"type":"event","name":"PriceChanged","inputs":[{"name":"eggPrice","type":"uint256","indexed":true,"internalType":"uint256"},{"name":"antPrice","type":"uint256","indexed":true,"internalType":"uint256"}],"anonymous":false},{"type":"event","name":"RandomnessRequested","inputs":[{"name":"requestId","type":"uint256","indexed":true,"internalType":"uint256"}],"anonymous":false},{"type":"event","name":"Transfer","inputs":[{"name":"from","type":"address","indexed":true,"internalType":"address"},{"name":"to","type":"address","indexed":true,"internalType":"address"},{"name":"tokenId","type":"uint256","indexed":true,"internalType":"uint256"}],"anonymous":false},{"type":"event","name":"Unpaused","inputs":[{"name":"account","type":"address","indexed":false,"internalType":"address"}],"anonymous":false},{"type":"error","name":"CryptoAnts_AntNotAlive","inputs":[]},{"type":"error","name":"CryptoAnts_CantSellDeadAnt","inputs":[]},{"type":"error","name":"CryptoAnts_CooldownNotComplete","inputs":[]},{"type":"error","name":"CryptoAnts_InCorrectAmount","inputs":[]},{"type":"error","name":"CryptoAnts_IncorrectPriceStrategy","inputs":[]},{"type":"error","name":"CryptoAnts_InvalidAntOwner","inputs":[]},{"type":"error","name":"CryptoAnts_NoBalance","inputs":[]},{"type":"error","name":"CryptoAnts_NoEggs","inputs":[]},{"type":"error","name":"CryptoAnts_OnwerExists","inputs":[]},{"type":"error","name":"CryptoAnts_UnauthorizedAccess","inputs":[]},{"type":"error","name":"ERC721IncorrectOwner","inputs":[{"name":"sender","type":"address","internalType":"address"},{"name":"tokenId","type":"uint256","internalType":"uint256"},{"name":"owner","type":"address","internalType":"address"}]},{"type":"error","name":"ERC721InsufficientApproval","inputs":[{"name":"operator","type":"address","internalType":"address"},{"name":"tokenId","type":"uint256","internalType":"uint256"}]},{"type":"error","name":"ERC721InvalidApprover","inputs":[{"name":"approver","type":"address","internalType":"address"}]},{"type":"error","name":"ERC721InvalidOperator","inputs":[{"name":"operator","type":"address","internalType":"address"}]},{"type":"error","name":"ERC721InvalidOwner","inputs":[{"name":"owner","type":"address","internalType":"address"}]},{"type":"error","name":"ERC721InvalidReceiver","inputs":[{"name":"receiver","type":"address","internalType":"address"}]},{"type":"error","name":"ERC721InvalidSender","inputs":[{"name":"sender","type":"address","internalType":"address"}]},{"type":"error","name":"ERC721NonexistentToken","inputs":[{"name":"tokenId","type":"uint256","internalType":"uint256"}]},{"type":"error","name":"EnforcedPause","inputs":[]},{"type":"error","name":"ExpectedPause","inputs":[]},{"type":"error","name":"NoZeroAddress","inputs":[]},{"type":"error","name":"OnlyCoordinatorCanFulfill","inputs":[{"name":"have","type":"address","internalType":"address"},{"name":"want","type":"address","internalType":"address"}]},{"type":"error","name":"OnlyOwnerOrCoordinator","inputs":[{"name":"have","type":"address","internalType":"address"},{"name":"owner","type":"address","internalType":"address"},{"name":"coordinator","type":"address","internalType":"address"}]},{"type":"error","name":"ReentrancyGuraded","inputs":[]},{"type":"error","name":"ZeroAddress","inputs":[]}],"bytecode":{"object":"0x6101206040527f787d74caea10b2b357790d5b5247c2f63d1d91572a9846f780606e4d953677ae600a55620186a0608052670de0b6b3a7640000600c55603c60c05261025860e0526014610100526005600f553480156200005f57600080fd5b50604051620032a4380380620032a4833981016040819052620000829162000307565b739ddfaca8183c41ad55329bdeed9f6a8d53168b1b338060006040518060400160405280600b81526020016a43727970746f20416e747360a81b81525060405180604001604052806004815260200163414e545360e01b8152508160009081620000ed9190620003ed565b506001620000fc8282620003ed565b50506006805460ff19169055506001600160a01b038216620001655760405162461bcd60e51b815260206004820152601860248201527f43616e6e6f7420736574206f776e657220746f207a65726f000000000000000060448201526064015b60405180910390fd5b600680546001600160a01b0380851661010002610100600160a81b0319909216919091179091558116156200019f576200019f8162000238565b5050506001600160a01b038116620001ca5760405163d92e233d60e01b815260040160405180910390fd5b600880546001600160a01b0319166001600160a01b0392831617905583811660a05281166200020c5760405163ddbadd5f60e01b815260040160405180910390fd5b600991909155601080546001600160a01b0319166001600160a01b0390921691909117905550620004b9565b336001600160a01b03821603620002925760405162461bcd60e51b815260206004820152601760248201527f43616e6e6f74207472616e7366657220746f2073656c6600000000000000000060448201526064016200015c565b600780546001600160a01b0319166001600160a01b03838116918217909255600654604051919261010090910416907fed8889f560326eb138920d842192f0eb3dd22b4f139c87a2c57538e05bae127890600090a350565b80516001600160a01b03811681146200030257600080fd5b919050565b6000806000606084860312156200031d57600080fd5b6200032884620002ea565b9250602084015191506200033f60408501620002ea565b90509250925092565b634e487b7160e01b600052604160045260246000fd5b600181811c908216806200037357607f821691505b6020821081036200039457634e487b7160e01b600052602260045260246000fd5b50919050565b601f821115620003e857600081815260208120601f850160051c81016020861015620003c35750805b601f850160051c820191505b81811015620003e457828155600101620003cf565b5050505b505050565b81516001600160401b0381111562000409576200040962000348565b62000421816200041a84546200035e565b846200039a565b602080601f831160018114620004595760008415620004405750858301515b600019600386901b1c1916600185901b178555620003e4565b600085815260208120601f198616915b828110156200048a5788860151825594840194600190910190840162000469565b5085821015620004a95787850151600019600388901b60f8161c191681555b5050505050600190811b01905550565b60805160a05160c05160e05161010051612d836200052160003960006119c70152600061172a0152600081816104e8015261156701526000818161075501528181610b9401528181610c8301528181610fbb0152611a63015260006117b30152612d836000f3fe6080604052600436106102d15760003560e01c806361dcb0541161017957806395d89b41116100d6578063c8aae2381161008a578063e0af6c8411610064578063e0af6c84146107b1578063e985e9c5146107c7578063f2fde38b1461081057600080fd5b8063c8aae23814610743578063cf30901214610777578063dcc8c2d91461079157600080fd5b8063a22cb465116100bb578063a22cb465146106e3578063b88d4fde14610703578063c87b56dd1461072357600080fd5b806395d89b41146106ae5780639eccacf6146106c357600080fd5b806379ba50971161012d5780638da5cb5b116101125780638da5cb5b1461064b5780638ea981171461066e57806391b7f5ed1461068e57600080fd5b806379ba5097146106215780638456cb591461063657600080fd5b8063655832b01161015e578063655832b0146105c15780636f9fb98a146105ee57806370a082311461060157600080fd5b806361dcb054146105815780636352211e146105a157600080fd5b80632e61a7bf116102325780634152fa00116101e6578063520f7c0e116101c0578063520f7c0e1461053d5780635c975abb1461055357806361728f391461056b57600080fd5b80634152fa00146104d657806342842e0e1461050a5780634fd535961461052a57600080fd5b80633ccfd60b116102175780633ccfd60b146104975780633d871229146104ac5780633f4ba83a146104c157600080fd5b80632e61a7bf1461046c578063305e35521461048157600080fd5b80630c340a24116102895780631fe543e31161026e5780631fe543e31461041757806323b872dd14610437578063248452bd1461045757600080fd5b80630c340a24146103ab578063109dcfe6146103cb57600080fd5b8063081812fc116102ba578063081812fc1461032d578063095ea7b31461036557806309c1ba2e1461038757600080fd5b806301ffc9a7146102d657806306fdde031461030b575b600080fd5b3480156102e257600080fd5b506102f66102f136600461274e565b610830565b60405190151581526020015b60405180910390f35b34801561031757600080fd5b50610320610915565b60405161030291906127d9565b34801561033957600080fd5b5061034d6103483660046127ec565b6109a7565b6040516001600160a01b039091168152602001610302565b34801561037157600080fd5b50610385610380366004612821565b6109d0565b005b34801561039357600080fd5b5061039d60095481565b604051908152602001610302565b3480156103b757600080fd5b5060105461034d906001600160a01b031681565b3480156103d757600080fd5b506104026103e63660046127ec565b6011602052600090815260409020805460019091015460ff1682565b60408051928352901515602083015201610302565b34801561042357600080fd5b5061038561043236600461284b565b6109df565b34801561044357600080fd5b506103856104523660046128ca565b610a4d565b34801561046357600080fd5b50600d5461039d565b34801561047857600080fd5b5061039d610b0a565b34801561048d57600080fd5b5061039d600c5481565b3480156104a357600080fd5b50610385610d64565b3480156104b857600080fd5b50600e5461039d565b3480156104cd57600080fd5b50610385610e92565b3480156104e257600080fd5b5061039d7f000000000000000000000000000000000000000000000000000000000000000081565b34801561051657600080fd5b506103856105253660046128ca565b610ea4565b6103856105383660046127ec565b610ebf565b34801561054957600080fd5b5061039d600d5481565b34801561055f57600080fd5b5060065460ff166102f6565b34801561057757600080fd5b5061039d600a5481565b34801561058d57600080fd5b5061038561059c3660046127ec565b61102d565b3480156105ad57600080fd5b5061034d6105bc3660046127ec565b611205565b3480156105cd57600080fd5b5061039d6105dc3660046127ec565b60126020526000908152604090205481565b3480156105fa57600080fd5b504761039d565b34801561060d57600080fd5b5061039d61061c366004612906565b611210565b34801561062d57600080fd5b50610385611271565b34801561064257600080fd5b5061038561137e565b34801561065757600080fd5b5060065461010090046001600160a01b031661034d565b34801561067a57600080fd5b50610385610689366004612906565b61138e565b34801561069a57600080fd5b506103856106a93660046127ec565b6114d2565b3480156106ba57600080fd5b506103206115d7565b3480156106cf57600080fd5b5060085461034d906001600160a01b031681565b3480156106ef57600080fd5b506103856106fe366004612921565b6115e6565b34801561070f57600080fd5b5061038561071e36600461298c565b6115f1565b34801561072f57600080fd5b5061032061073e3660046127ec565b611609565b34801561074f57600080fd5b5061034d7f000000000000000000000000000000000000000000000000000000000000000081565b34801561078357600080fd5b50600b546102f69060ff1681565b34801561079d57600080fd5b5061039d6107ac3660046127ec565b61167e565b3480156107bd57600080fd5b5061039d600f5481565b3480156107d357600080fd5b506102f66107e2366004612a86565b6001600160a01b03918216600090815260056020908152604080832093909416825291909152205460ff1690565b34801561081c57600080fd5b5061038561082b366004612906565b6118be565b60007fffffffff0000000000000000000000000000000000000000000000000000000082167f80ac58cd0000000000000000000000000000000000000000000000000000000014806108c357507fffffffff0000000000000000000000000000000000000000000000000000000082167f5b5e139f00000000000000000000000000000000000000000000000000000000145b8061090f57507f01ffc9a7000000000000000000000000000000000000000000000000000000007fffffffff000000000000000000000000000000000000000000000000000000008316145b92915050565b60606000805461092490612ab9565b80601f016020809104026020016040519081016040528092919081815260200182805461095090612ab9565b801561099d5780601f106109725761010080835404028352916020019161099d565b820191906000526020600020905b81548152906001019060200180831161098057829003601f168201915b5050505050905090565b60006109b2826118d2565b506000828152600460205260409020546001600160a01b031661090f565b6109db828233611924565b5050565b6008546001600160a01b03163314610a3d576008546040517f1cf993f40000000000000000000000000000000000000000000000000000000081523360048201526001600160a01b0390911660248201526044015b60405180910390fd5b610a48838383611931565b505050565b6001600160a01b038216610a90576040517f64a0ae9200000000000000000000000000000000000000000000000000000000815260006004820152602401610a34565b6000610a9d838333611b00565b9050836001600160a01b0316816001600160a01b031614610b04576040517f64283d7b0000000000000000000000000000000000000000000000000000000081526001600160a01b0380861660048301526024820184905282166044820152606401610a34565b50505050565b600b5460009060ff161515600103610b4e576040517f2823afd400000000000000000000000000000000000000000000000000000000815260040160405180910390fd5b600b805460ff191660019081179091556040517f70a082310000000000000000000000000000000000000000000000000000000081523360048201526001600160a01b037f000000000000000000000000000000000000000000000000000000000000000016906370a0823190602401602060405180830381865afa158015610bdb573d6000803e3d6000fd5b505050506040513d601f19601f82011682018060405250810190610bff9190612b0c565b1015610c37576040517f37911f0200000000000000000000000000000000000000000000000000000000815260040160405180910390fd5b600e60008154610c4690612b54565b91829055506040517f3262bf39000000000000000000000000000000000000000000000000000000008152336004820152600160248201529091507f00000000000000000000000000000000000000000000000000000000000000006001600160a01b031690633262bf3990604401600060405180830381600087803b158015610ccf57600080fd5b505af1158015610ce3573d6000803e3d6000fd5b50505050610cf13382611b15565b6040805180820182524281526001602080830182815260008681526011909252848220935184555192909101805460ff1916921515929092179091559051339183917f21251aeaec8b20fdd1f8998b78a5f299f550504eeedea3298ae98638f6b2eae49190a3600b805460ff1916905590565b6010546001600160a01b03163314610da8576040517f67b22fda00000000000000000000000000000000000000000000000000000000815260040160405180910390fd5b4747610de0576040517f9fae7a2500000000000000000000000000000000000000000000000000000000815260040160405180910390fd5b604051600090339083908381818185875af1925050503d8060008114610e22576040519150601f19603f3d011682016040523d82523d6000602084013e610e27565b606091505b50509050806109db576040517f08c379a000000000000000000000000000000000000000000000000000000000815260206004820152601960248201527f57686f6f70732c20746869732063616c6c206661696c656421000000000000006044820152606401610a34565b610e9a611b2f565b610ea2611ba8565b565b610a48838383604051806020016040528060008152506115f1565b600b5460ff161515600103610f00576040517f2823afd400000000000000000000000000000000000000000000000000000000815260040160405180910390fd5b600b805460ff19166001179055600c54600090610f1e908390612b8c565b9050803414610f59576040517f4d5984ac00000000000000000000000000000000000000000000000000000000815260040160405180910390fd5b604051819033907fecedcda9002dd5028204a70dddaa2155459b6dff3c3e20543450a189e736dc4990600090a36040517f40c10f19000000000000000000000000000000000000000000000000000000008152336004820152602481018390527f00000000000000000000000000000000000000000000000000000000000000006001600160a01b0316906340c10f1990604401600060405180830381600087803b15801561100757600080fd5b505af115801561101b573d6000803e3d6000fd5b5050600b805460ff1916905550505050565b600b5460ff16151560010361106e576040517f2823afd400000000000000000000000000000000000000000000000000000000815260040160405180910390fd5b600b805460ff191660011790553361108582611205565b6001600160a01b0316146110c5576040517f5033045500000000000000000000000000000000000000000000000000000000815260040160405180910390fd5b60008181526011602052604090206001015460ff16611110576040517ff478bfe300000000000000000000000000000000000000000000000000000000815260040160405180910390fd5b61111981611bfa565b60405181907f41a91426d97d842d6ed4c70099ed35651b100d0bc6fdefd8cda4c0ce4352afc990600090a2600d5460405160009133918381818185875af1925050503d8060008114611187576040519150601f19603f3d011682016040523d82523d6000602084013e61118c565b606091505b50509050806111f7576040517f08c379a000000000000000000000000000000000000000000000000000000000815260206004820152601960248201527f57686f6f70732c20746869732063616c6c206661696c656421000000000000006044820152606401610a34565b5050600b805460ff19169055565b600061090f826118d2565b60006001600160a01b038216611255576040517f89c62b6400000000000000000000000000000000000000000000000000000000815260006004820152602401610a34565b506001600160a01b031660009081526003602052604090205490565b6007546001600160a01b031633146112e5576040517f08c379a000000000000000000000000000000000000000000000000000000000815260206004820152601660248201527f4d7573742062652070726f706f736564206f776e6572000000000000000000006044820152606401610a34565b600680547fffffffffffffffffffffff0000000000000000000000000000000000000000ff81166101003381810292909217909355600780547fffffffffffffffffffffffff0000000000000000000000000000000000000000169055604051929091046001600160a01b03169182907f8be0079c531659141344cd1fd0a4f28419497f9722a3daafe3b4186f6b6457e090600090a350565b611386611b2f565b610ea2611c4e565b60065461010090046001600160a01b03166001600160a01b0316336001600160a01b0316141580156113cb57506008546001600160a01b03163314155b15611426576006546008546040517f061db9c10000000000000000000000000000000000000000000000000000000081523360048201526001600160a01b036101009093048316602482015291166044820152606401610a34565b6001600160a01b038116611466576040517fd92e233d00000000000000000000000000000000000000000000000000000000815260040160405180910390fd5b600880547fffffffffffffffffffffffff0000000000000000000000000000000000000000166001600160a01b0383169081179091556040519081527fd1a6a14209a385a964d036e404cb5cfb71f4000cdb03c9366292430787261be69060200160405180910390a150565b6010546001600160a01b03163314611516576040517f67b22fda00000000000000000000000000000000000000000000000000000000815260040160405180910390fd5b8015806115245750600d5481105b1561155b576040517f370f762500000000000000000000000000000000000000000000000000000000815260040160405180910390fd5b600c819055606461158c7f000000000000000000000000000000000000000000000000000000000000000082612ba3565b600c546115999190612b8c565b6115a39190612be5565b600d819055600c546040517f8aa4fa52648a6d15edce8a179c792c86f3719d0cc3c572cf90f91948f0f2cb6890600090a350565b60606001805461092490612ab9565b6109db338383611c8b565b6115fc848484610a4d565b610b043385858585611d43565b6060611614826118d2565b50600061162c60408051602081019091526000815290565b9050600081511161164c5760405180602001604052806000815250611677565b8061165684611f07565b604051602001611667929190612bf9565b6040516020818303038152906040525b9392505050565b60003361168a83611205565b6001600160a01b0316146116ca576040517f5033045500000000000000000000000000000000000000000000000000000000815260040160405180910390fd5b60008281526011602052604090206001015460ff16611715576040517f3effbff800000000000000000000000000000000000000000000000000000000815260040160405180910390fd5b60008281526011602052604090205461174f907f000000000000000000000000000000000000000000000000000000000000000090612c28565b421015611788576040517fc96e6dba00000000000000000000000000000000000000000000000000000000815260040160405180910390fd5b6008546040805160c081018252600a54815260095460208083019190915260038284015263ffffffff7f0000000000000000000000000000000000000000000000000000000000000000166060830152600260808301528251908101909252600082526001600160a01b0390921691639b1c385e9160a082019061180b90611fc5565b8152506040518263ffffffff1660e01b815260040161182a9190612c3b565b6020604051808303816000875af1158015611849573d6000803e3d6000fd5b505050506040513d601f19601f8201168201806040525081019061186d9190612b0c565b6000818152601260205260408082208590555191925082917f9ac10fb18c93d33ad7b0a941897aef048d0f8d30756684e82b4552ba12764d459190a260009182526011602052604090912042905590565b6118c6611b2f565b6118cf81612081565b50565b6000818152600260205260408120546001600160a01b03168061090f576040517f7e27328900000000000000000000000000000000000000000000000000000000815260048101849052602401610a34565b610a488383836001612163565b6000838152601260205260408120549060648484838161195357611953612c98565b905060200201356119649190612cc7565b9050600f548110156119c057600082815260116020526040808220600101805460ff191690555183917f9fa2baaf8e92576613bb52bebefd36aa850b89fc1157cee6d7a92679303a3c5991a26119b982611bfa565b5050505050565b60006119ed7f00000000000000000000000000000000000000000000000000000000000000006001612cdb565b60ff1685856001818110611a0357611a03612c98565b90506020020135611a149190612cc7565b90506000611a2184611205565b6040517f40c10f190000000000000000000000000000000000000000000000000000000081526001600160a01b038083166004830152602482018590529192507f0000000000000000000000000000000000000000000000000000000000000000909116906340c10f1990604401600060405180830381600087803b158015611aa957600080fd5b505af1158015611abd573d6000803e3d6000fd5b50506040518492506001600160a01b03841691507f2a436a2248e5ab028740afc87909b942f161f288d12962820a4545acae8ea3a490600090a350505050505050565b6000611b0d8484846122b9565b949350505050565b6109db8282604051806020016040528060008152506122ce565b60065461010090046001600160a01b03163314610ea2576040517f08c379a000000000000000000000000000000000000000000000000000000000815260206004820152601660248201527f4f6e6c792063616c6c61626c65206279206f776e6572000000000000000000006044820152606401610a34565b611bb06122e6565b6006805460ff191690557f5db9ee0a495bf2e6ff9c91a7834c1ba4fdd244a5e8aa4e537bd38aeae4b073aa335b6040516001600160a01b03909116815260200160405180910390a1565b6000611c096000836000611b00565b90506001600160a01b0381166109db576040517f7e27328900000000000000000000000000000000000000000000000000000000815260048101839052602401610a34565b611c56612322565b6006805460ff191660011790557f62e78cea01bee320cd4e420270b5ea74000d11b0c9f74754ebdbfc544b05a258611bdd3390565b6001600160a01b038216611cd6576040517f5b08ba180000000000000000000000000000000000000000000000000000000081526001600160a01b0383166004820152602401610a34565b6001600160a01b03838116600081815260056020908152604080832094871680845294825291829020805460ff191686151590811790915591519182527f17307eab39ab6107e8899845ad3d59bd9653f200f220920489ca2b5937696c31910160405180910390a3505050565b6001600160a01b0383163b156119b9576040517f150b7a020000000000000000000000000000000000000000000000000000000081526001600160a01b0384169063150b7a0290611d9e908890889087908790600401612cf4565b6020604051808303816000875af1925050508015611df7575060408051601f3d9081017fffffffffffffffffffffffffffffffffffffffffffffffffffffffffffffffe0168201909252611df491810190612d30565b60015b611e79573d808015611e25576040519150601f19603f3d011682016040523d82523d6000602084013e611e2a565b606091505b508051600003611e71576040517f64a0ae920000000000000000000000000000000000000000000000000000000081526001600160a01b0385166004820152602401610a34565b805181602001fd5b7fffffffff0000000000000000000000000000000000000000000000000000000081167f150b7a020000000000000000000000000000000000000000000000000000000014611eff576040517f64a0ae920000000000000000000000000000000000000000000000000000000081526001600160a01b0385166004820152602401610a34565b505050505050565b60606000611f148361235f565b600101905060008167ffffffffffffffff811115611f3457611f3461295d565b6040519080825280601f01601f191660200182016040528015611f5e576020820181803683370190505b5090508181016020015b7fffffffffffffffffffffffffffffffffffffffffffffffffffffffffffffffff017f3031323334353637383961626364656600000000000000000000000000000000600a86061a8153600a8504945084611f6857509392505050565b60607f92fd13387c7fe7befbc38d303d6468778fb9731bc4583f17d92989c6fcfdeaaa82604051602401611ffe91511515815260200190565b604080517fffffffffffffffffffffffffffffffffffffffffffffffffffffffffffffffe08184030181529190526020810180517bffffffffffffffffffffffffffffffffffffffffffffffffffffffff167fffffffff000000000000000000000000000000000000000000000000000000009093169290921790915292915050565b336001600160a01b038216036120f3576040517f08c379a000000000000000000000000000000000000000000000000000000000815260206004820152601760248201527f43616e6e6f74207472616e7366657220746f2073656c660000000000000000006044820152606401610a34565b600780547fffffffffffffffffffffffff0000000000000000000000000000000000000000166001600160a01b03838116918217909255600654604051919261010090910416907fed8889f560326eb138920d842192f0eb3dd22b4f139c87a2c57538e05bae127890600090a350565b808061217757506001600160a01b03821615155b15612271576000612187846118d2565b90506001600160a01b038316158015906121b35750826001600160a01b0316816001600160a01b031614155b80156121e557506001600160a01b0380821660009081526005602090815260408083209387168352929052205460ff16155b15612227576040517fa9fbf51f0000000000000000000000000000000000000000000000000000000081526001600160a01b0384166004820152602401610a34565b811561226f5783856001600160a01b0316826001600160a01b03167f8c5be1e5ebec7d5bd14f71427d1e84f3dd0314c0f7b2291e5b200ac8c7c3b92560405160405180910390a45b505b5050600090815260046020526040902080547fffffffffffffffffffffffff0000000000000000000000000000000000000000166001600160a01b0392909216919091179055565b60006122c3612322565b611b0d848484612441565b6122d88383612570565b610a48336000858585611d43565b60065460ff16610ea2576040517f8dfc202b00000000000000000000000000000000000000000000000000000000815260040160405180910390fd5b60065460ff1615610ea2576040517fd93c066500000000000000000000000000000000000000000000000000000000815260040160405180910390fd5b6000807a184f03e93ff9f4daa797ed6e38ed64bf6a1f01000000000000000083106123a8577a184f03e93ff9f4daa797ed6e38ed64bf6a1f010000000000000000830492506040015b6d04ee2d6d415b85acef810000000083106123d4576d04ee2d6d415b85acef8100000000830492506020015b662386f26fc1000083106123f257662386f26fc10000830492506010015b6305f5e100831061240a576305f5e100830492506008015b612710831061241e57612710830492506004015b60648310612430576064830492506002015b600a831061090f5760010192915050565b6000828152600260205260408120546001600160a01b039081169083161561246e5761246e818486612607565b6001600160a01b038116156124ca5761248b600085600080612163565b6001600160a01b038116600090815260036020526040902080547fffffffffffffffffffffffffffffffffffffffffffffffffffffffffffffffff0190555b6001600160a01b038516156124f9576001600160a01b0385166000908152600360205260409020805460010190555b60008481526002602052604080822080547fffffffffffffffffffffffff0000000000000000000000000000000000000000166001600160a01b0389811691821790925591518793918516917fddf252ad1be2c89b69c2b068fc378daa952ba7f163c4a11628f55a4df523b3ef91a4949350505050565b6001600160a01b0382166125b3576040517f64a0ae9200000000000000000000000000000000000000000000000000000000815260006004820152602401610a34565b60006125c183836000611b00565b90506001600160a01b03811615610a48576040517f73c6ac6e00000000000000000000000000000000000000000000000000000000815260006004820152602401610a34565b61261283838361269d565b610a48576001600160a01b038316612659576040517f7e27328900000000000000000000000000000000000000000000000000000000815260048101829052602401610a34565b6040517f177e802f0000000000000000000000000000000000000000000000000000000081526001600160a01b038316600482015260248101829052604401610a34565b60006001600160a01b03831615801590611b0d5750826001600160a01b0316846001600160a01b031614806126f757506001600160a01b0380851660009081526005602090815260408083209387168352929052205460ff165b80611b0d5750506000908152600460205260409020546001600160a01b03908116911614919050565b7fffffffff00000000000000000000000000000000000000000000000000000000811681146118cf57600080fd5b60006020828403121561276057600080fd5b813561167781612720565b60005b8381101561278657818101518382015260200161276e565b50506000910152565b600081518084526127a781602086016020860161276b565b601f017fffffffffffffffffffffffffffffffffffffffffffffffffffffffffffffffe0169290920160200192915050565b602081526000611677602083018461278f565b6000602082840312156127fe57600080fd5b5035919050565b80356001600160a01b038116811461281c57600080fd5b919050565b6000806040838503121561283457600080fd5b61283d83612805565b946020939093013593505050565b60008060006040848603121561286057600080fd5b83359250602084013567ffffffffffffffff8082111561287f57600080fd5b818601915086601f83011261289357600080fd5b8135818111156128a257600080fd5b8760208260051b85010111156128b757600080fd5b6020830194508093505050509250925092565b6000806000606084860312156128df57600080fd5b6128e884612805565b92506128f660208501612805565b9150604084013590509250925092565b60006020828403121561291857600080fd5b61167782612805565b6000806040838503121561293457600080fd5b61293d83612805565b91506020830135801515811461295257600080fd5b809150509250929050565b7f4e487b7100000000000000000000000000000000000000000000000000000000600052604160045260246000fd5b600080600080608085870312156129a257600080fd5b6129ab85612805565b93506129b960208601612805565b925060408501359150606085013567ffffffffffffffff808211156129dd57600080fd5b818701915087601f8301126129f157600080fd5b813581811115612a0357612a0361295d565b604051601f82017fffffffffffffffffffffffffffffffffffffffffffffffffffffffffffffffe0908116603f01168101908382118183101715612a4957612a4961295d565b816040528281528a6020848701011115612a6257600080fd5b82602086016020830137600060208483010152809550505050505092959194509250565b60008060408385031215612a9957600080fd5b612aa283612805565b9150612ab060208401612805565b90509250929050565b600181811c90821680612acd57607f821691505b602082108103612b06577f4e487b7100000000000000000000000000000000000000000000000000000000600052602260045260246000fd5b50919050565b600060208284031215612b1e57600080fd5b5051919050565b7f4e487b7100000000000000000000000000000000000000000000000000000000600052601160045260246000fd5b60007fffffffffffffffffffffffffffffffffffffffffffffffffffffffffffffffff8203612b8557612b85612b25565b5060010190565b808202811582820484141761090f5761090f612b25565b8181038181111561090f5761090f612b25565b7f4e487b7100000000000000000000000000000000000000000000000000000000600052601260045260246000fd5b600082612bf457612bf4612bb6565b500490565b60008351612c0b81846020880161276b565b835190830190612c1f81836020880161276b565b01949350505050565b8082018082111561090f5761090f612b25565b60208152815160208201526020820151604082015261ffff60408301511660608201526000606083015163ffffffff80821660808501528060808601511660a0850152505060a083015160c080840152611b0d60e084018261278f565b7f4e487b7100000000000000000000000000000000000000000000000000000000600052603260045260246000fd5b600082612cd657612cd6612bb6565b500690565b60ff818116838216019081111561090f5761090f612b25565b60006001600160a01b03808716835280861660208401525083604083015260806060830152612d26608083018461278f565b9695505050505050565b600060208284031215612d4257600080fd5b81516116778161272056fea2646970667358221220f055b17e28c68380762081146c79f5c5643d8a07c5b0f2ee42b3b70ce1409edf64736f6c63430008140033","linkReferences":{}},"methodIdentifiers":{"EGGS()":"c8aae238","I_ANTSALEDISCOUNT()":"4152fa00","acceptOwnership()":"79ba5097","antPrice()":"520f7c0e","ants(uint256)":"109dcfe6","approve(address,uint256)":"095ea7b3","balanceOf(address)":"70a08231","buyEggs(uint256)":"4fd53596","createAnt()":"2e61a7bf","deathChance()":"e0af6c84","eggPrice()":"305e3552","getAntPrice()":"248452bd","getAntsCreated()":"3d871229","getApproved(uint256)":"081812fc","getContractBalance()":"6f9fb98a","governor()":"0c340a24","isApprovedForAll(address,address)":"e985e9c5","keyHash()":"61728f39","layEggs(uint256)":"dcc8c2d9","locked()":"cf309012","name()":"06fdde03","owner()":"8da5cb5b","ownerOf(uint256)":"6352211e","pause()":"8456cb59","paused()":"5c975abb","rawFulfillRandomWords(uint256,uint256[])":"1fe543e3","requestToAnt(uint256)":"655832b0","s_vrfCoordinator()":"9eccacf6","safeTransferFrom(address,address,uint256)":"42842e0e","safeTransferFrom(address,address,uint256,bytes)":"b88d4fde","sellAnt(uint256)":"61dcb054","setApprovalForAll(address,bool)":"a22cb465","setCoordinator(address)":"8ea98117","setPrice(uint256)":"91b7f5ed","subscriptionId()":"09c1ba2e","supportsInterface(bytes4)":"01ffc9a7","symbol()":"95d89b41","tokenURI(uint256)":"c87b56dd","transferFrom(address,address,uint256)":"23b872dd","transferOwnership(address)":"f2fde38b","unpause()":"3f4ba83a","withdraw()":"3ccfd60b"},"id":47}